{"abi":[{"type":"constructor","inputs":[],"stateMutability":"nonpayable"},{"type":"function","name":"ADMIN_ROLE","inputs":[],"outputs":[{"name":"","type":"bytes32","internalType":"bytes32"}],"stateMutability":"view"},{"type":"function","name":"DEFAULT_ADMIN_ROLE","inputs":[],"outputs":[{"name":"","type":"bytes32","internalType":"bytes32"}],"stateMutability":"view"},{"type":"function","name":"DST_H1_G1","inputs":[],"outputs":[{"name":"","type":"bytes","internalType":"bytes"}],"stateMutability":"view"},{"type":"function","name":"DST_H2","inputs":[],"outputs":[{"name":"","type":"bytes","internalType":"bytes"}],"stateMutability":"view"},{"type":"function","name":"DST_H3","inputs":[],"outputs":[{"name":"","type":"bytes","internalType":"bytes"}],"stateMutability":"view"},{"type":"function","name":"DST_H4","inputs":[],"outputs":[{"name":"","type":"bytes","internalType":"bytes"}],"stateMutability":"view"},{"type":"function","name":"SCHEME_ID","inputs":[],"outputs":[{"name":"","type":"string","internalType":"string"}],"stateMutability":"view"},{"type":"function","name":"UPGRADE_INTERFACE_VERSION","inputs":[],"outputs":[{"name":"","type":"string","internalType":"string"}],"stateMutability":"view"},{"type":"function","name":"blocklockRequestsWithDecryptionKey","inputs":[{"name":"","type":"uint256","internalType":"uint256"}],"outputs":[{"name":"decryptionRequestID","type":"uint256","internalType":"uint256"},{"name":"blockHeight","type":"uint256","internalType":"uint256"},{"name":"ciphertext","type":"tuple","internalType":"struct TypesLib.Ciphertext","components":[{"name":"u","type":"tuple","internalType":"struct BLS.PointG2","components":[{"name":"x","type":"uint256[2]","internalType":"uint256[2]"},{"name":"y","type":"uint256[2]","internalType":"uint256[2]"}]},{"name":"v","type":"bytes","internalType":"bytes"},{"name":"w","type":"bytes","internalType":"bytes"}]},{"name":"signature","type":"bytes","internalType":"bytes"},{"name":"decryptionKey","type":"bytes","internalType":"bytes"},{"name":"callback","type":"address","internalType":"address"}],"stateMutability":"view"},{"type":"function","name":"decrypt","inputs":[{"name":"ciphertext","type":"tuple","internalType":"struct TypesLib.Ciphertext","components":[{"name":"u","type":"tuple","internalType":"struct BLS.PointG2","components":[{"name":"x","type":"uint256[2]","internalType":"uint256[2]"},{"name":"y","type":"uint256[2]","internalType":"uint256[2]"}]},{"name":"v","type":"bytes","internalType":"bytes"},{"name":"w","type":"bytes","internalType":"bytes"}]},{"name":"decryptionKey","type":"bytes","internalType":"bytes"}],"outputs":[{"name":"","type":"bytes","internalType":"bytes"}],"stateMutability":"view"},{"type":"function","name":"decryptionSender","inputs":[],"outputs":[{"name":"","type":"address","internalType":"contract IDecryptionSender"}],"stateMutability":"view"},{"type":"function","name":"getRequest","inputs":[{"name":"requestID","type":"uint256","internalType":"uint256"}],"outputs":[{"name":"","type":"tuple","internalType":"struct TypesLib.BlocklockRequest","components":[{"name":"decryptionRequestID","type":"uint256","internalType":"uint256"},{"name":"blockHeight","type":"uint256","internalType":"uint256"},{"name":"ciphertext","type":"tuple","internalType":"struct TypesLib.Ciphertext","components":[{"name":"u","type":"tuple","internalType":"struct BLS.PointG2","components":[{"name":"x","type":"uint256[2]","internalType":"uint256[2]"},{"name":"y","type":"uint256[2]","internalType":"uint256[2]"}]},{"name":"v","type":"bytes","internalType":"bytes"},{"name":"w","type":"bytes","internalType":"bytes"}]},{"name":"signature","type":"bytes","internalType":"bytes"},{"name":"decryptionKey","type":"bytes","internalType":"bytes"},{"name":"callback","type":"address","internalType":"address"}]}],"stateMutability":"view"},{"type":"function","name":"getRoleAdmin","inputs":[{"name":"role","type":"bytes32","internalType":"bytes32"}],"outputs":[{"name":"","type":"bytes32","internalType":"bytes32"}],"stateMutability":"view"},{"type":"function","name":"getRoleMember","inputs":[{"name":"role","type":"bytes32","internalType":"bytes32"},{"name":"index","type":"uint256","internalType":"uint256"}],"outputs":[{"name":"","type":"address","internalType":"address"}],"stateMutability":"view"},{"type":"function","name":"getRoleMemberCount","inputs":[{"name":"role","type":"bytes32","internalType":"bytes32"}],"outputs":[{"name":"","type":"uint256","internalType":"uint256"}],"stateMutability":"view"},{"type":"function","name":"getRoleMembers","inputs":[{"name":"role","type":"bytes32","internalType":"bytes32"}],"outputs":[{"name":"","type":"address[]","internalType":"address[]"}],"stateMutability":"view"},{"type":"function","name":"grantRole","inputs":[{"name":"role","type":"bytes32","internalType":"bytes32"},{"name":"account","type":"address","internalType":"address"}],"outputs":[],"stateMutability":"nonpayable"},{"type":"function","name":"hasRole","inputs":[{"name":"role","type":"bytes32","internalType":"bytes32"},{"name":"account","type":"address","internalType":"address"}],"outputs":[{"name":"","type":"bool","internalType":"bool"}],"stateMutability":"view"},{"type":"function","name":"initialize","inputs":[{"name":"owner","type":"address","internalType":"address"},{"name":"_decryptionSender","type":"address","internalType":"address"}],"outputs":[],"stateMutability":"nonpayable"},{"type":"function","name":"isInFlight","inputs":[{"name":"requestID","type":"uint256","internalType":"uint256"}],"outputs":[{"name":"","type":"bool","internalType":"bool"}],"stateMutability":"view"},{"type":"function","name":"proxiableUUID","inputs":[],"outputs":[{"name":"","type":"bytes32","internalType":"bytes32"}],"stateMutability":"view"},{"type":"function","name":"receiveDecryptionData","inputs":[{"name":"requestID","type":"uint256","internalType":"uint256"},{"name":"decryptionKey","type":"bytes","internalType":"bytes"},{"name":"signature","type":"bytes","internalType":"bytes"}],"outputs":[],"stateMutability":"nonpayable"},{"type":"function","name":"renounceRole","inputs":[{"name":"role","type":"bytes32","internalType":"bytes32"},{"name":"callerConfirmation","type":"address","internalType":"address"}],"outputs":[],"stateMutability":"nonpayable"},{"type":"function","name":"requestBlocklock","inputs":[{"name":"blockHeight","type":"uint256","internalType":"uint256"},{"name":"ciphertext","type":"tuple","internalType":"struct TypesLib.Ciphertext","components":[{"name":"u","type":"tuple","internalType":"struct BLS.PointG2","components":[{"name":"x","type":"uint256[2]","internalType":"uint256[2]"},{"name":"y","type":"uint256[2]","internalType":"uint256[2]"}]},{"name":"v","type":"bytes","internalType":"bytes"},{"name":"w","type":"bytes","internalType":"bytes"}]}],"outputs":[{"name":"","type":"uint256","internalType":"uint256"}],"stateMutability":"nonpayable"},{"type":"function","name":"revokeRole","inputs":[{"name":"role","type":"bytes32","internalType":"bytes32"},{"name":"account","type":"address","internalType":"address"}],"outputs":[],"stateMutability":"nonpayable"},{"type":"function","name":"setDecryptionSender","inputs":[{"name":"newDecryptionSender","type":"address","internalType":"address"}],"outputs":[],"stateMutability":"nonpayable"},{"type":"function","name":"supportsInterface","inputs":[{"name":"interfaceId","type":"bytes4","internalType":"bytes4"}],"outputs":[{"name":"","type":"bool","internalType":"bool"}],"stateMutability":"view"},{"type":"function","name":"upgradeToAndCall","inputs":[{"name":"newImplementation","type":"address","internalType":"address"},{"name":"data","type":"bytes","internalType":"bytes"}],"outputs":[],"stateMutability":"payable"},{"type":"function","name":"version","inputs":[],"outputs":[{"name":"","type":"string","internalType":"string"}],"stateMutability":"pure"},{"type":"event","name":"BlocklockCallbackSuccess","inputs":[{"name":"requestID","type":"uint256","indexed":true,"internalType":"uint256"},{"name":"blockHeight","type":"uint256","indexed":false,"internalType":"uint256"},{"name":"ciphertext","type":"tuple","indexed":false,"internalType":"struct TypesLib.Ciphertext","components":[{"name":"u","type":"tuple","internalType":"struct BLS.PointG2","components":[{"name":"x","type":"uint256[2]","internalType":"uint256[2]"},{"name":"y","type":"uint256[2]","internalType":"uint256[2]"}]},{"name":"v","type":"bytes","internalType":"bytes"},{"name":"w","type":"bytes","internalType":"bytes"}]},{"name":"decryptionKey","type":"bytes","indexed":false,"internalType":"bytes"}],"anonymous":false},{"type":"event","name":"BlocklockRequested","inputs":[{"name":"requestID","type":"uint256","indexed":true,"internalType":"uint256"},{"name":"blockHeight","type":"uint256","indexed":false,"internalType":"uint256"},{"name":"ciphertext","type":"tuple","indexed":false,"internalType":"struct TypesLib.Ciphertext","components":[{"name":"u","type":"tuple","internalType":"struct BLS.PointG2","components":[{"name":"x","type":"uint256[2]","internalType":"uint256[2]"},{"name":"y","type":"uint256[2]","internalType":"uint256[2]"}]},{"name":"v","type":"bytes","internalType":"bytes"},{"name":"w","type":"bytes","internalType":"bytes"}]},{"name":"requester","type":"address","indexed":true,"internalType":"address"},{"name":"requestedAt","type":"uint256","indexed":false,"internalType":"uint256"}],"anonymous":false},{"type":"event","name":"DecryptionSenderUpdated","inputs":[{"name":"decryptionSender","type":"address","indexed":true,"internalType":"address"}],"anonymous":false},{"type":"event","name":"Initialized","inputs":[{"name":"version","type":"uint64","indexed":false,"internalType":"uint64"}],"anonymous":false},{"type":"event","name":"RoleAdminChanged","inputs":[{"name":"role","type":"bytes32","indexed":true,"internalType":"bytes32"},{"name":"previousAdminRole","type":"bytes32","indexed":true,"internalType":"bytes32"},{"name":"newAdminRole","type":"bytes32","indexed":true,"internalType":"bytes32"}],"anonymous":false},{"type":"event","name":"RoleGranted","inputs":[{"name":"role","type":"bytes32","indexed":true,"internalType":"bytes32"},{"name":"account","type":"address","indexed":true,"internalType":"address"},{"name":"sender","type":"address","indexed":true,"internalType":"address"}],"anonymous":false},{"type":"event","name":"RoleRevoked","inputs":[{"name":"role","type":"bytes32","indexed":true,"internalType":"bytes32"},{"name":"account","type":"address","indexed":true,"internalType":"address"},{"name":"sender","type":"address","indexed":true,"internalType":"address"}],"anonymous":false},{"type":"event","name":"Upgraded","inputs":[{"name":"implementation","type":"address","indexed":true,"internalType":"address"}],"anonymous":false},{"type":"error","name":"AccessControlBadConfirmation","inputs":[]},{"type":"error","name":"AccessControlUnauthorizedAccount","inputs":[{"name":"account","type":"address","internalType":"address"},{"name":"neededRole","type":"bytes32","internalType":"bytes32"}]},{"type":"error","name":"AddressEmptyCode","inputs":[{"name":"target","type":"address","internalType":"address"}]},{"type":"error","name":"BlocklockCallbackFailed","inputs":[{"name":"requestID","type":"uint256","internalType":"uint256"}]},{"type":"error","name":"ERC1967InvalidImplementation","inputs":[{"name":"implementation","type":"address","internalType":"address"}]},{"type":"error","name":"ERC1967NonPayable","inputs":[]},{"type":"error","name":"FailedCall","inputs":[]},{"type":"error","name":"InvalidDSTLength","inputs":[{"name":"dst","type":"bytes","internalType":"bytes"}]},{"type":"error","name":"InvalidInitialization","inputs":[]},{"type":"error","name":"NotInitializing","inputs":[]},{"type":"error","name":"UUPSUnauthorizedCallContext","inputs":[]},{"type":"error","name":"UUPSUnsupportedProxiableUUID","inputs":[{"name":"slot","type":"bytes32","internalType":"bytes32"}]}],"bytecode":{"object":"0x60a06040523060805234801562000014575f80fd5b506200001f62000025565b620000d9565b7ff0c57e16840df040f15088dc2f81fe391c3923bec73e23a9662efc9c229c6a00805468010000000000000000900460ff1615620000765760405163f92ee8a960e01b815260040160405180910390fd5b80546001600160401b0390811614620000d65780546001600160401b0319166001600160401b0390811782556040519081527fc7f505b2f371ae2175ee4913f4499e1f2633a7b5936321eed1cdaeb6115181d29060200160405180910390a15b50565b60805161414d620001005f395f8181611d4301528181611d6c0152611fa9015261414d5ff3fe6080604052600436106101ba575f3560e01c80635f7bda9f116100f2578063a217fddf11610092578063c9bc18c411610062578063c9bc18c414610610578063ca15c8731461062f578063cd802c911461064e578063d547741f1461066d575f80fd5b8063a217fddf1461055d578063a3246ad314610570578063ad3cb1cc1461059c578063c58343ef146105e4575f80fd5b806375b238fc116100cd57806375b238fc146104535780638a1f165a146104865780639010d07c146104ce57806391d14854146104ed575f80fd5b80635f7bda9f146103fa57806367b276af1461042b5780637350f4561461043f575f80fd5b806338c27d121161015d5780634f1ef286116101385780634f1ef2861461036f57806352d1902d1461038257806354fd4d50146103965780635d3be001146103db575f80fd5b806338c27d121461031d57806346cd2b4214610331578063485cc95514610350575f80fd5b8063235296f711610198578063235296f714610263578063248a9ca3146102845780632f2ff15d146102df57806336568abe146102fe575f80fd5b806301ffc9a7146101be578063133c40c7146101f25780631e6ba15b14610242575b5f80fd5b3480156101c9575f80fd5b506101dd6101d836600461333b565b61068c565b60405190151581526020015b60405180910390f35b3480156101fd575f80fd5b505f5461021d9073ffffffffffffffffffffffffffffffffffffffff1681565b60405173ffffffffffffffffffffffffffffffffffffffff90911681526020016101e9565b34801561024d575f80fd5b5061026161025c3660046133a2565b6106e7565b005b34801561026e575f80fd5b5061027761077c565b6040516101e99190613426565b34801561028f575f80fd5b506102d161029e366004613438565b5f9081527f02dd7bc7dec4dceedda775e58dd541e08a116c6c53815c0bd028192f7b626800602052604090206001015490565b6040519081526020016101e9565b3480156102ea575f80fd5b506102616102f936600461344f565b610798565b348015610309575f80fd5b5061026161031836600461344f565b6107e1565b348015610328575f80fd5b5061027761083f565b34801561033c575f80fd5b506102d161034b36600461348f565b61085b565b34801561035b575f80fd5b5061026161036a3660046134d3565b610bba565b61026161037d3660046135f8565b610e7f565b34801561038d575f80fd5b506102d1610e9e565b3480156103a1575f80fd5b5060408051808201909152600581527f302e302e310000000000000000000000000000000000000000000000000000006020820152610277565b3480156103e6575f80fd5b506102616103f5366004613677565b610ecc565b348015610405575f80fd5b50610419610414366004613438565b610fc5565b6040516101e99695949392919061375f565b348015610436575f80fd5b506102776112b5565b34801561044a575f80fd5b506102776112d1565b34801561045e575f80fd5b506102d17fa49807205ce4d355092ef5a8a18f56e8913cf4a201fbe287825b095693c2177581565b348015610491575f80fd5b506102776040518060400160405280601381526020017f424e3235342d424c532d424c4f434b4c4f434b0000000000000000000000000081525081565b3480156104d9575f80fd5b5061021d6104e83660046137cd565b6112ed565b3480156104f8575f80fd5b506101dd61050736600461344f565b5f9182527f02dd7bc7dec4dceedda775e58dd541e08a116c6c53815c0bd028192f7b6268006020908152604080842073ffffffffffffffffffffffffffffffffffffffff93909316845291905290205460ff1690565b348015610568575f80fd5b506102d15f81565b34801561057b575f80fd5b5061058f61058a366004613438565b61132d565b6040516101e991906137ed565b3480156105a7575f80fd5b506102776040518060400160405280600581526020017f352e302e3000000000000000000000000000000000000000000000000000000081525081565b3480156105ef575f80fd5b506106036105fe366004613438565b611370565b6040516101e99190613846565b34801561061b575f80fd5b5061027761062a3660046138fc565b6116ee565b34801561063a575f80fd5b506102d1610649366004613438565b611ab6565b348015610659575f80fd5b506101dd610668366004613438565b611aed565b348015610678575f80fd5b5061026161068736600461344f565b611b9a565b5f7fffffffff0000000000000000000000000000000000000000000000000000000082167f5a05180f0000000000000000000000000000000000000000000000000000000014806106e157506106e182611bdd565b92915050565b6107107fa49807205ce4d355092ef5a8a18f56e8913cf4a201fbe287825b095693c21775611c73565b5f80547fffffffffffffffffffffffff00000000000000000000000000000000000000001673ffffffffffffffffffffffffffffffffffffffff8316908117825560405190917f0dae1d002e96c238ebe140ca1799f77093ae09e0bde40f79bb29ed78d09e652d91a250565b6040518060600160405280602c81526020016140a8602c913981565b5f8281527f02dd7bc7dec4dceedda775e58dd541e08a116c6c53815c0bd028192f7b62680060205260409020600101546107d181611c73565b6107db8383611c80565b50505050565b73ffffffffffffffffffffffffffffffffffffffff81163314610830576040517f6697b23200000000000000000000000000000000000000000000000000000000815260040160405180910390fd5b61083a8282611cd5565b505050565b6040518060600160405280602281526020016140866022913981565b5f4383116108f0576040517f08c379a000000000000000000000000000000000000000000000000000000000815260206004820152603160248201527f626c6f636b486569676874206d757374206265207374726963746c792067726560448201527f61746572207468616e2063757272656e7400000000000000000000000000000060648201526084015b60405180910390fd5b5f6040518060c001604052805f815260200185815260200184610912906139eb565b815260200160405180602001604052805f815250815260200160405180602001604052805f81525081526020013373ffffffffffffffffffffffffffffffffffffffff1681525090505f8460405160200161096f91815260200190565b604080517fffffffffffffffffffffffffffffffffffffffffffffffffffffffffffffffe08184030181525f80548484018452601385527f424e3235342d424c532d424c4f434b4c4f434b000000000000000000000000006020868101919091529351929550909373ffffffffffffffffffffffffffffffffffffffff9091169263f87f0e6192610a02918a9101613b85565b604051602081830303815290604052856040518463ffffffff1660e01b8152600401610a3093929190613b97565b6020604051808303815f875af1158015610a4c573d5f803e3d5ffd5b505050506040513d601f19601f82011682018060405250810190610a709190613bcf565b8084525f8181526001602081815260409283902087518155908701519181019190915590850151805180519394508693600280850192918391610ab491839161320b565b506020820151610aca906002808401919061320b565b50505060208201516004820190610ae19082613c75565b5060408201516005820190610af69082613c75565b50505060608201516008820190610b0d9082613c75565b5060808201516009820190610b229082613c75565b5060a09190910151600a90910180547fffffffffffffffffffffffff00000000000000000000000000000000000000001673ffffffffffffffffffffffffffffffffffffffff909216919091179055604051339082907f126e74afe6053bc58ebb2677b900753aa56801a8b86023af245885b817dc7c2e90610ba9908a908a904290613d8d565b60405180910390a395945050505050565b7ff0c57e16840df040f15088dc2f81fe391c3923bec73e23a9662efc9c229c6a00805468010000000000000000810460ff16159067ffffffffffffffff165f81158015610c045750825b90505f8267ffffffffffffffff166001148015610c205750303b155b905081158015610c2e575080155b15610c65576040517ff92ee8a900000000000000000000000000000000000000000000000000000000815260040160405180910390fd5b84547fffffffffffffffffffffffffffffffffffffffffffffffff00000000000000001660011785558315610cc65784547fffffffffffffffffffffffffffffffffffffffffffffff00ffffffffffffffff16680100000000000000001785555b610cce611d21565b610cd6611d21565b610d007fa49807205ce4d355092ef5a8a18f56e8913cf4a201fbe287825b095693c2177588611c80565b610d66576040517f08c379a000000000000000000000000000000000000000000000000000000000815260206004820152601160248201527f4772616e7420726f6c65206661696c656400000000000000000000000000000060448201526064016108e7565b610d705f88611c80565b610dd6576040517f08c379a000000000000000000000000000000000000000000000000000000000815260206004820152601160248201527f4772616e7420726f6c65206661696c656400000000000000000000000000000060448201526064016108e7565b5f80547fffffffffffffffffffffffff00000000000000000000000000000000000000001673ffffffffffffffffffffffffffffffffffffffff88161790558315610e765784547fffffffffffffffffffffffffffffffffffffffffffffff00ffffffffffffffff168555604051600181527fc7f505b2f371ae2175ee4913f4499e1f2633a7b5936321eed1cdaeb6115181d29060200160405180910390a15b50505050505050565b610e87611d2b565b610e9082611e2f565b610e9a8282611e58565b5050565b5f610ea7611f91565b507f360894a13ba1a3210667c828492db98dca3e2076cc3735a920a3ca505d382bbc90565b5f5473ffffffffffffffffffffffffffffffffffffffff163314610f4c576040517f08c379a000000000000000000000000000000000000000000000000000000000815260206004820152601e60248201527f4f6e6c792044656372797074696f6e53656e6465722063616e2063616c6c000060448201526064016108e7565b610fbe8585858080601f0160208091040260200160405190810160405280939291908181526020018383808284375f9201919091525050604080516020601f890181900481028201810190925287815292508791508690819084018382808284375f9201919091525061200092505050565b5050505050565b600160208190525f918252604091829020805491810154835160e08101948590529293909290600280840191839160608301918491839160a0860191849182845b81548152602001906001019080831161100657505050918352505060408051808201918290526020909201919060028481019182845b81548152602001906001019080831161103c57505050505081525050815260200160048201805461106c90613be6565b80601f016020809104026020016040519081016040528092919081815260200182805461109890613be6565b80156110e35780601f106110ba576101008083540402835291602001916110e3565b820191905f5260205f20905b8154815290600101906020018083116110c657829003601f168201915b505050505081526020016005820180546110fc90613be6565b80601f016020809104026020016040519081016040528092919081815260200182805461112890613be6565b80156111735780601f1061114a57610100808354040283529160200191611173565b820191905f5260205f20905b81548152906001019060200180831161115657829003601f168201915b5050505050815250509080600801805461118c90613be6565b80601f01602080910402602001604051908101604052809291908181526020018280546111b890613be6565b80156112035780601f106111da57610100808354040283529160200191611203565b820191905f5260205f20905b8154815290600101906020018083116111e657829003601f168201915b50505050509080600901805461121890613be6565b80601f016020809104026020016040519081016040528092919081815260200182805461124490613be6565b801561128f5780601f106112665761010080835404028352916020019161128f565b820191905f5260205f20905b81548152906001019060200180831161127257829003601f168201915b505050600a909301549192505073ffffffffffffffffffffffffffffffffffffffff1686565b6040518060600160405280602281526020016140d46022913981565b6040518060600160405280602281526020016140f66022913981565b5f8281527fc1f6fe24621ce81ec5827caf0253cadb74709b061630e6b55e82371705932000602081905260408220611325908461257c565b949350505050565b5f8181527fc1f6fe24621ce81ec5827caf0253cadb74709b061630e6b55e82371705932000602081905260409091206060919061136990612587565b9392505050565b611378613249565b5f828152600160208181526040808420815160c081018352815481529381015492840192909252805160e0810180835291840191600280850191839160608301918491839160a0860191849182845b8154815260200190600101908083116113c757505050918352505060408051808201918290526020909201919060028481019182845b8154815260200190600101908083116113fd57505050505081525050815260200160048201805461142d90613be6565b80601f016020809104026020016040519081016040528092919081815260200182805461145990613be6565b80156114a45780601f1061147b576101008083540402835291602001916114a4565b820191905f5260205f20905b81548152906001019060200180831161148757829003601f168201915b505050505081526020016005820180546114bd90613be6565b80601f01602080910402602001604051908101604052809291908181526020018280546114e990613be6565b80156115345780601f1061150b57610100808354040283529160200191611534565b820191905f5260205f20905b81548152906001019060200180831161151757829003601f168201915b505050505081525050815260200160088201805461155190613be6565b80601f016020809104026020016040519081016040528092919081815260200182805461157d90613be6565b80156115c85780601f1061159f576101008083540402835291602001916115c8565b820191905f5260205f20905b8154815290600101906020018083116115ab57829003601f168201915b505050505081526020016009820180546115e190613be6565b80601f016020809104026020016040519081016040528092919081815260200182805461160d90613be6565b80156116585780601f1061162f57610100808354040283529160200191611658565b820191905f5260205f20905b81548152906001019060200180831161163b57829003601f168201915b5050509183525050600a919091015473ffffffffffffffffffffffffffffffffffffffff1660209091015280519091506106e1576040517f08c379a000000000000000000000000000000000000000000000000000000000815260206004820152601160248201527f696e76616c69642072657175657374494400000000000000000000000000000060448201526064016108e7565b60606116fd6080850185613db5565b905061010003611769576040517f08c379a000000000000000000000000000000000000000000000000000000000815260206004820152601d60248201527f696e76616c69642064656372797074696f6e206b6579206c656e67746800000060448201526064016108e7565b61010061177960a0860186613db5565b9050106117e2576040517f08c379a000000000000000000000000000000000000000000000000000000000815260206004820152601d60248201527f6d657373616765206f6620756e737570706f72746564206c656e67746800000060448201526064016108e7565b5f6117f06080860186613db5565b8080601f0160208091040260200160405190810160405280939291908181526020018383808284375f9201829052509394505050505b8381101561189c5784848281811061184057611840613e16565b9050013560f81c60f81b82828151811061185c5761185c613e16565b0160200180517fff00000000000000000000000000000000000000000000000000000000000000908116909218909116905f82901a905350600101611826565b505f6118ab60a0870187613db5565b8080601f0160208091040260200160405190810160405280939291908181526020018383808284375f920182905250604080516060810190915260228082529596509094611916945090925090506140d460208301398461190f60a08b018b613db5565b9050612593565b90505f5b61192760a0890189613db5565b905081101561199f5781818151811061194257611942613e16565b602001015160f81c60f81b83828151811061195f5761195f613e16565b0160200180517fff00000000000000000000000000000000000000000000000000000000000000908116909218909116905f82901a90535060010161191a565b505f6119e46040518060600160405280602281526020016140f66022913985856040516020016119d0929190613e43565b6040516020818303038152906040526127bc565b90505f6119f082612841565b90505f80611a0c83611a07368e90038e018e613e71565b6128ed565b909250905060018215158215151414611aa7576040517f08c379a000000000000000000000000000000000000000000000000000000000815260206004820152602e60248201527f696e76616c69642064656372797074696f6e206b6579202f206369706865727460448201527f657874207265676973746572656400000000000000000000000000000000000060648201526084016108e7565b50939998505050505050505050565b5f8181527fc1f6fe24621ce81ec5827caf0253cadb74709b061630e6b55e8237170593200060208190526040822061136990612a5c565b5f81815260016020526040812054808203611b0a57505f92915050565b5f546040517fcd802c910000000000000000000000000000000000000000000000000000000081526004810183905273ffffffffffffffffffffffffffffffffffffffff9091169063cd802c9190602401602060405180830381865afa158015611b76573d5f803e3d5ffd5b505050506040513d601f19601f820116820180604052508101906113699190613e8b565b5f8281527f02dd7bc7dec4dceedda775e58dd541e08a116c6c53815c0bd028192f7b6268006020526040902060010154611bd381611c73565b6107db8383611cd5565b5f7fffffffff0000000000000000000000000000000000000000000000000000000082167f7965db0b0000000000000000000000000000000000000000000000000000000014806106e157507f01ffc9a7000000000000000000000000000000000000000000000000000000007fffffffff000000000000000000000000000000000000000000000000000000008316146106e1565b611c7d8133612a65565b50565b5f7fc1f6fe24621ce81ec5827caf0253cadb74709b061630e6b55e8237170593200081611cad8585612b0b565b90508015611325575f858152602083905260409020611ccc9085612c29565b50949350505050565b5f7fc1f6fe24621ce81ec5827caf0253cadb74709b061630e6b55e8237170593200081611d028585612c4a565b90508015611325575f858152602083905260409020611ccc9085612d26565b611d29612d47565b565b3073ffffffffffffffffffffffffffffffffffffffff7f0000000000000000000000000000000000000000000000000000000000000000161480611df857507f000000000000000000000000000000000000000000000000000000000000000073ffffffffffffffffffffffffffffffffffffffff16611ddf7f360894a13ba1a3210667c828492db98dca3e2076cc3735a920a3ca505d382bbc5473ffffffffffffffffffffffffffffffffffffffff1690565b73ffffffffffffffffffffffffffffffffffffffff1614155b15611d29576040517fe07c8dba00000000000000000000000000000000000000000000000000000000815260040160405180910390fd5b611c7d7fa49807205ce4d355092ef5a8a18f56e8913cf4a201fbe287825b095693c21775611c73565b8173ffffffffffffffffffffffffffffffffffffffff166352d1902d6040518163ffffffff1660e01b8152600401602060405180830381865afa925050508015611edd575060408051601f3d9081017fffffffffffffffffffffffffffffffffffffffffffffffffffffffffffffffe0168201909252611eda91810190613bcf565b60015b611f2b576040517f4c9c8ce300000000000000000000000000000000000000000000000000000000815273ffffffffffffffffffffffffffffffffffffffff831660048201526024016108e7565b7f360894a13ba1a3210667c828492db98dca3e2076cc3735a920a3ca505d382bbc8114611f87576040517faa1d49a4000000000000000000000000000000000000000000000000000000008152600481018290526024016108e7565b61083a8383612dae565b3073ffffffffffffffffffffffffffffffffffffffff7f00000000000000000000000000000000000000000000000000000000000000001614611d29576040517fe07c8dba00000000000000000000000000000000000000000000000000000000815260040160405180910390fd5b5f838152600160208181526040808420815160c081018352815481529381015492840192909252805160e0810180835291840191600280850191839160608301918491839160a0860191849182845b81548152602001906001019080831161204f57505050918352505060408051808201918290526020909201919060028481019182845b8154815260200190600101908083116120855750505050508152505081526020016004820180546120b590613be6565b80601f01602080910402602001604051908101604052809291908181526020018280546120e190613be6565b801561212c5780601f106121035761010080835404028352916020019161212c565b820191905f5260205f20905b81548152906001019060200180831161210f57829003601f168201915b5050505050815260200160058201805461214590613be6565b80601f016020809104026020016040519081016040528092919081815260200182805461217190613be6565b80156121bc5780601f10612193576101008083540402835291602001916121bc565b820191905f5260205f20905b81548152906001019060200180831161219f57829003601f168201915b50505050508152505081526020016008820180546121d990613be6565b80601f016020809104026020016040519081016040528092919081815260200182805461220590613be6565b80156122505780601f1061222757610100808354040283529160200191612250565b820191905f5260205f20905b81548152906001019060200180831161223357829003601f168201915b5050505050815260200160098201805461226990613be6565b80601f016020809104026020016040519081016040528092919081815260200182805461229590613be6565b80156122e05780601f106122b7576101008083540402835291602001916122e0565b820191905f5260205f20905b8154815290600101906020018083116122c357829003601f168201915b5050509183525050600a919091015473ffffffffffffffffffffffffffffffffffffffff16602090910152805190915061239c576040517f08c379a000000000000000000000000000000000000000000000000000000000815260206004820152602960248201527f6e6f206d61746368696e6720626c6f636b6c6f636b207265717565737420666f60448201527f722074686174206964000000000000000000000000000000000000000000000060648201526084016108e7565b6060810182905260a08101516040515f9173ffffffffffffffffffffffffffffffffffffffff16907f5d94180200000000000000000000000000000000000000000000000000000000906123f69088908890602401613eaa565b604080517fffffffffffffffffffffffffffffffffffffffffffffffffffffffffffffffe08184030181529181526020820180517bffffffffffffffffffffffffffffffffffffffffffffffffffffffff167fffffffff0000000000000000000000000000000000000000000000000000000090941693909317909252905161247f9190613ec2565b5f604051808303815f865af19150503d805f81146124b8576040519150601f19603f3d011682016040523d82523d5f602084013e6124bd565b606091505b50509050806124fb576040517f15083536000000000000000000000000000000000000000000000000000000008152600481018690526024016108e7565b847f33b40097ac8b0a5517c18a7039d9a7aa5c2454fce1aef0eb090c76882533374c836020015184604001518760405161253793929190613edd565b60405180910390a25f8581526001602052604090206009016125598582613c75565b505f8581526001602052604090206008016125748482613c75565b505050505050565b5f6113698383612e10565b60605f61136983612e36565b825160609060ff8111156125d557846040517f26e4f9ba0000000000000000000000000000000000000000000000000000000081526004016108e79190613426565b60408051608880825260c082019092525f916020820181803683370190505090505f81865f875f8b886040516020016126149796959493929190613f07565b60405160208183030381529060405290505f818051906020012090505f8160018a876040516020016126499493929190613fa4565b604080517fffffffffffffffffffffffffffffffffffffffffffffffffffffffffffffffe0818403018152919052805160208201209091505f60ff891667ffffffffffffffff81111561269e5761269e6134fb565b6040519080825280601f01601f1916602001820160405280156126c8576020820181803683370190505b5090505f60056126dc601f60ff8d16614032565b901c905060015b8181101561277f578584186126f9826001614032565b8e8b60405160200161270e9493929190613fa4565b604080518083037fffffffffffffffffffffffffffffffffffffffffffffffffffffffffffffffe001815291905260207fffffffffffffffffffffffffffffffffffffffffffffffffffffffffffffffff8301810285018101959095528051948101949094209394506001016126e3565b507fffffffffffffffffffffffffffffffffffffffffffffffffffffffffffffffff01602090810282010191909152955050505050509392505050565b5f806127ca84846030612593565b6018810151603082015191925077ffffffffffffffffffffffffffffffffffffffffffffffff91821691165f7f30644e72e131a029b85045b68181585d97816a916871ca8d3c208c16d87cfd4783817801000000000000000000000000000000000000000000000000850908979650505050505050565b604080518082019091525f808252602082015261285c613281565b6001815260026020820152604081018390525f60608360808460076107d05a03fa9050806128e6576040517f08c379a000000000000000000000000000000000000000000000000000000000815260206004820152601f60248201527f4731207363616c6172206d756c7469706c69636174696f6e206661696c65640060448201526064016108e7565b5050919050565b5f805f604051806101800160405280865f01518152602001866020015181526020017f198e9393920d483a7260bfb731fb5d25f1aa493335a9e71297e485b7aef312c281526020017f1800deef121f1e76426a00665e5c4479674322d4f75edadd46debd5cd992f6ed81526020017f275dc4a288d1afb3cbb1ac09187524c7db36395df7be3b99e673b13a075a65ec81526020017f1d9befcd05a5323e6da4d435f3b617cdb3af83285c2df711ef39c01571827f9d81526020016001815260200160028152602001855f01516001600281106129cb576129cb613e16565b60200201518152602001855f01515f600281106129ea576129ea613e16565b602002015181526020018560200151600160028110612a0b57612a0b613e16565b6020020151815260200185602001515f60028110612a2b57612a2b613e16565b602002015190529050612a3c61329f565b6020816101808460086107d05a03fa9051151593509150505b9250929050565b5f6106e1825490565b5f8281527f02dd7bc7dec4dceedda775e58dd541e08a116c6c53815c0bd028192f7b6268006020908152604080832073ffffffffffffffffffffffffffffffffffffffff8516845290915290205460ff16610e9a576040517fe2517d3f00000000000000000000000000000000000000000000000000000000815273ffffffffffffffffffffffffffffffffffffffff82166004820152602481018390526044016108e7565b5f8281527f02dd7bc7dec4dceedda775e58dd541e08a116c6c53815c0bd028192f7b6268006020818152604080842073ffffffffffffffffffffffffffffffffffffffff8616855290915282205460ff16612c20575f8481526020828152604080832073ffffffffffffffffffffffffffffffffffffffff87168452909152902080547fffffffffffffffffffffffffffffffffffffffffffffffffffffffffffffff00166001179055612bbc3390565b73ffffffffffffffffffffffffffffffffffffffff168373ffffffffffffffffffffffffffffffffffffffff16857f2f8788117e7eff1d82e926ec794901d17c78024a50270940304540a733656f0d60405160405180910390a460019150506106e1565b5f9150506106e1565b5f6113698373ffffffffffffffffffffffffffffffffffffffff8416612e8f565b5f8281527f02dd7bc7dec4dceedda775e58dd541e08a116c6c53815c0bd028192f7b6268006020818152604080842073ffffffffffffffffffffffffffffffffffffffff8616855290915282205460ff1615612c20575f8481526020828152604080832073ffffffffffffffffffffffffffffffffffffffff8716808552925280832080547fffffffffffffffffffffffffffffffffffffffffffffffffffffffffffffff0016905551339287917ff6391f5c32d9c69d2a47ea670b442974b53935d1edc7fd64eb21e047a839171b9190a460019150506106e1565b5f6113698373ffffffffffffffffffffffffffffffffffffffff8416612edb565b7ff0c57e16840df040f15088dc2f81fe391c3923bec73e23a9662efc9c229c6a005468010000000000000000900460ff16611d29576040517fd7e6bcf800000000000000000000000000000000000000000000000000000000815260040160405180910390fd5b612db782612fb5565b60405173ffffffffffffffffffffffffffffffffffffffff8316907fbc7cd75a20ee27fd9adebab32041f755214dbc6bffa90cc0225b39da2e5c2d3b905f90a2805115612e085761083a8282613083565b610e9a613102565b5f825f018281548110612e2557612e25613e16565b905f5260205f200154905092915050565b6060815f01805480602002602001604051908101604052809291908181526020018280548015612e8357602002820191905f5260205f20905b815481526020019060010190808311612e6f575b50505050509050919050565b5f818152600183016020526040812054612ed457508154600181810184555f8481526020808220909301849055845484825282860190935260409020919091556106e1565b505f6106e1565b5f8181526001830160205260408120548015612c20575f612efd600183614045565b85549091505f90612f1090600190614045565b9050808214612f6f575f865f018281548110612f2e57612f2e613e16565b905f5260205f200154905080875f018481548110612f4e57612f4e613e16565b5f918252602080832090910192909255918252600188019052604090208390555b8554869080612f8057612f80614058565b600190038181905f5260205f20015f90559055856001015f8681526020019081526020015f205f9055600193505050506106e1565b8073ffffffffffffffffffffffffffffffffffffffff163b5f0361301d576040517f4c9c8ce300000000000000000000000000000000000000000000000000000000815273ffffffffffffffffffffffffffffffffffffffff821660048201526024016108e7565b7f360894a13ba1a3210667c828492db98dca3e2076cc3735a920a3ca505d382bbc80547fffffffffffffffffffffffff00000000000000000000000000000000000000001673ffffffffffffffffffffffffffffffffffffffff92909216919091179055565b60605f808473ffffffffffffffffffffffffffffffffffffffff16846040516130ac9190613ec2565b5f60405180830381855af49150503d805f81146130e4576040519150601f19603f3d011682016040523d82523d5f602084013e6130e9565b606091505b50915091506130f985838361313a565b95945050505050565b3415611d29576040517fb398979f00000000000000000000000000000000000000000000000000000000815260040160405180910390fd5b60608261314f5761314a826131c9565b611369565b8151158015613173575073ffffffffffffffffffffffffffffffffffffffff84163b155b156131c2576040517f9996b31500000000000000000000000000000000000000000000000000000000815273ffffffffffffffffffffffffffffffffffffffff851660048201526024016108e7565b5080611369565b8051156131d95780518082602001fd5b6040517fd6bda27500000000000000000000000000000000000000000000000000000000815260040160405180910390fd5b8260028101928215613239579160200282015b8281111561323957825182559160200191906001019061321e565b506132459291506132bd565b5090565b6040518060c001604052805f81526020015f81526020016132686132d1565b8152606060208201819052604082018190525f91015290565b60405180606001604052806003906020820280368337509192915050565b60405180602001604052806001906020820280368337509192915050565b5b80821115613245575f81556001016132be565b60405180606001604052806132e46132f8565b815260200160608152602001606081525090565b604051806040016040528061330b61331d565b815260200161331861331d565b905290565b60405180604001604052806002906020820280368337509192915050565b5f6020828403121561334b575f80fd5b81357fffffffff0000000000000000000000000000000000000000000000000000000081168114611369575f80fd5b803573ffffffffffffffffffffffffffffffffffffffff8116811461339d575f80fd5b919050565b5f602082840312156133b2575f80fd5b6113698261337a565b5f5b838110156133d55781810151838201526020016133bd565b50505f910152565b5f81518084526133f48160208601602086016133bb565b601f017fffffffffffffffffffffffffffffffffffffffffffffffffffffffffffffffe0169290920160200192915050565b602081525f61136960208301846133dd565b5f60208284031215613448575f80fd5b5035919050565b5f8060408385031215613460575f80fd5b823591506134706020840161337a565b90509250929050565b5f60c08284031215613489575f80fd5b50919050565b5f80604083850312156134a0575f80fd5b82359150602083013567ffffffffffffffff8111156134bd575f80fd5b6134c985828601613479565b9150509250929050565b5f80604083850312156134e4575f80fd5b6134ed8361337a565b91506134706020840161337a565b7f4e487b71000000000000000000000000000000000000000000000000000000005f52604160045260245ffd5b6040805190810167ffffffffffffffff8111828210171561354b5761354b6134fb565b60405290565b5f82601f830112613560575f80fd5b813567ffffffffffffffff8082111561357b5761357b6134fb565b604051601f83017fffffffffffffffffffffffffffffffffffffffffffffffffffffffffffffffe0908116603f011681019082821181831017156135c1576135c16134fb565b816040528381528660208588010111156135d9575f80fd5b836020870160208301375f602085830101528094505050505092915050565b5f8060408385031215613609575f80fd5b6136128361337a565b9150602083013567ffffffffffffffff81111561362d575f80fd5b6134c985828601613551565b5f8083601f840112613649575f80fd5b50813567ffffffffffffffff811115613660575f80fd5b602083019150836020828501011115612a55575f80fd5b5f805f805f6060868803121561368b575f80fd5b85359450602086013567ffffffffffffffff808211156136a9575f80fd5b6136b589838a01613639565b909650945060408801359150808211156136cd575f80fd5b506136da88828901613639565b969995985093965092949392505050565b805f5b60028110156107db5781518452602093840193909101906001016136ee565b5f815161371b8482516136eb565b6020015161372c60408501826136eb565b50602082015160c0608085015261374660c08501826133dd565b9050604083015184820360a08601526130f982826133dd565b86815285602082015260c060408201525f61377d60c083018761370d565b828103606084015261378f81876133dd565b905082810360808401526137a381866133dd565b91505073ffffffffffffffffffffffffffffffffffffffff831660a0830152979650505050505050565b5f80604083850312156137de575f80fd5b50508035926020909101359150565b602080825282518282018190525f9190848201906040850190845b8181101561383a57835173ffffffffffffffffffffffffffffffffffffffff1683529284019291840191600101613808565b50909695505050505050565b6020815281516020820152602082015160408201525f604083015160c0606084015261387560e084018261370d565b905060608401517fffffffffffffffffffffffffffffffffffffffffffffffffffffffffffffffe0808584030160808601526138b183836133dd565b925060808601519150808584030160a0860152506138cf82826133dd565b91505073ffffffffffffffffffffffffffffffffffffffff60a08501511660c08401528091505092915050565b5f805f6040848603121561390e575f80fd5b833567ffffffffffffffff80821115613925575f80fd5b61393187838801613479565b94506020860135915080821115613946575f80fd5b5061395386828701613639565b9497909650939450505050565b5f82601f83011261396f575f80fd5b613977613528565b806040840185811115613988575f80fd5b845b818110156139a257803584526020938401930161398a565b509095945050505050565b5f608082840312156139bd575f80fd5b6139c5613528565b90506139d18383613960565b81526139e08360408401613960565b602082015292915050565b5f60c082360312156139fb575f80fd5b6040516060810167ffffffffffffffff8282108183111715613a1f57613a1f6134fb565b81604052613a2d36866139ad565b83526080850135915080821115613a42575f80fd5b613a4e36838701613551565b602084015260a0850135915080821115613a66575f80fd5b50613a7336828601613551565b60408301525092915050565b5f8083357fffffffffffffffffffffffffffffffffffffffffffffffffffffffffffffffe1843603018112613ab2575f80fd5b830160208101925035905067ffffffffffffffff811115613ad1575f80fd5b803603821315612a55575f80fd5b81835281816020850137505f602082840101525f60207fffffffffffffffffffffffffffffffffffffffffffffffffffffffffffffffe0601f840116840101905092915050565b6040818337604080820160408401375f613b436080830183613a7f565b60c06080860152613b5860c086018284613adf565b915050613b6860a0840184613a7f565b85830360a0870152613b7b838284613adf565b9695505050505050565b602081525f6113696020830184613b26565b606081525f613ba960608301866133dd565b8281036020840152613bbb81866133dd565b90508281036040840152613b7b81856133dd565b5f60208284031215613bdf575f80fd5b5051919050565b600181811c90821680613bfa57607f821691505b602082108103613489577f4e487b71000000000000000000000000000000000000000000000000000000005f52602260045260245ffd5b601f82111561083a57805f5260205f20601f840160051c81016020851015613c565750805b601f840160051c820191505b81811015610fbe575f8155600101613c62565b815167ffffffffffffffff811115613c8f57613c8f6134fb565b613ca381613c9d8454613be6565b84613c31565b602080601f831160018114613cf5575f8415613cbf5750858301515b7fffffffffffffffffffffffffffffffffffffffffffffffffffffffffffffffff600386901b1c1916600185901b178555612574565b5f858152602081207fffffffffffffffffffffffffffffffffffffffffffffffffffffffffffffffe08616915b82811015613d4157888601518255948401946001909101908401613d22565b5085821015613d7d57878501517fffffffffffffffffffffffffffffffffffffffffffffffffffffffffffffffff600388901b60f8161c191681555b5050505050600190811b01905550565b838152606060208201525f613da56060830185613b26565b9050826040830152949350505050565b5f8083357fffffffffffffffffffffffffffffffffffffffffffffffffffffffffffffffe1843603018112613de8575f80fd5b83018035915067ffffffffffffffff821115613e02575f80fd5b602001915036819003821315612a55575f80fd5b7f4e487b71000000000000000000000000000000000000000000000000000000005f52603260045260245ffd5b5f8351613e548184602088016133bb565b835190830190613e688183602088016133bb565b01949350505050565b5f60808284031215613e81575f80fd5b61136983836139ad565b5f60208284031215613e9b575f80fd5b81518015158114611369575f80fd5b828152604060208201525f61132560408301846133dd565b5f8251613ed38184602087016133bb565b9190910192915050565b838152606060208201525f613ef5606083018561370d565b8281036040840152613b7b81856133dd565b5f8851613f18818460208d016133bb565b885190830190613f2c818360208d016133bb565b8082019150507fff00000000000000000000000000000000000000000000000000000000000000808960f81b168252808860f81b166001830152808760f81b1660028301528551613f84816003850160208a016133bb565b60f89590951b169301600381019390935250506004019695505050505050565b8481525f7fff00000000000000000000000000000000000000000000000000000000000000808660f81b1660208401528451613fe78160218601602089016133bb565b60f89490941b16919092016021810191909152602201949350505050565b7f4e487b71000000000000000000000000000000000000000000000000000000005f52601160045260245ffd5b808201808211156106e1576106e1614005565b818103818111156106e1576106e1614005565b7f4e487b71000000000000000000000000000000000000000000000000000000005f52603160045260245ffdfe424c4f434b4c4f434b5f424e3235345f584d443a4b454343414b2d3235365f48325f424c4f434b4c4f434b5f424e32353447315f584d443a4b454343414b2d3235365f535644575f524f5f48315f424c4f434b4c4f434b5f424e3235345f584d443a4b454343414b2d3235365f48345f424c4f434b4c4f434b5f424e3235345f584d443a4b454343414b2d3235365f48335fa26469706673582212207fb1324db5a00cff27e960e8a45a232d624d0ad3c51e77798809e72c547ecf4a64736f6c63430008180033","linkReferences":{}},"methodIdentifiers":{"ADMIN_ROLE()":"75b238fc","DEFAULT_ADMIN_ROLE()":"a217fddf","DST_H1_G1()":"235296f7","DST_H2()":"38c27d12","DST_H3()":"7350f456","DST_H4()":"67b276af","SCHEME_ID()":"8a1f165a","UPGRADE_INTERFACE_VERSION()":"ad3cb1cc","blocklockRequestsWithDecryptionKey(uint256)":"5f7bda9f","decrypt(((uint256[2],uint256[2]),bytes,bytes),bytes)":"c9bc18c4","decryptionSender()":"133c40c7","getRequest(uint256)":"c58343ef","getRoleAdmin(bytes32)":"248a9ca3","getRoleMember(bytes32,uint256)":"9010d07c","getRoleMemberCount(bytes32)":"ca15c873","getRoleMembers(bytes32)":"a3246ad3","grantRole(bytes32,address)":"2f2ff15d","hasRole(bytes32,address)":"91d14854","initialize(address,address)":"485cc955","isInFlight(uint256)":"cd802c91","proxiableUUID()":"52d1902d","receiveDecryptionData(uint256,bytes,bytes)":"5d3be001","renounceRole(bytes32,address)":"36568abe","requestBlocklock(uint256,((uint256[2],uint256[2]),bytes,bytes))":"46cd2b42","revokeRole(bytes32,address)":"d547741f","setDecryptionSender(address)":"1e6ba15b","supportsInterface(bytes4)":"01ffc9a7","upgradeToAndCall(address,bytes)":"4f1ef286","version()":"54fd4d50"},"id":7}