{"abi":[{"type":"constructor","inputs":[],"stateMutability":"nonpayable"},{"type":"function","name":"ADMIN_ROLE","inputs":[],"outputs":[{"name":"","type":"bytes32","internalType":"bytes32"}],"stateMutability":"view"},{"type":"function","name":"DEFAULT_ADMIN_ROLE","inputs":[],"outputs":[{"name":"","type":"bytes32","internalType":"bytes32"}],"stateMutability":"view"},{"type":"function","name":"UPGRADE_INTERFACE_VERSION","inputs":[],"outputs":[{"name":"","type":"string","internalType":"string"}],"stateMutability":"view"},{"type":"function","name":"fulfilDecryptionRequest","inputs":[{"name":"requestID","type":"uint256","internalType":"uint256"},{"name":"decryptionKey","type":"bytes","internalType":"bytes"},{"name":"signature","type":"bytes","internalType":"bytes"}],"outputs":[],"stateMutability":"nonpayable"},{"type":"function","name":"getAllErroredRequestIds","inputs":[],"outputs":[{"name":"","type":"uint256[]","internalType":"uint256[]"}],"stateMutability":"view"},{"type":"function","name":"getAllFulfilledRequestIds","inputs":[],"outputs":[{"name":"","type":"uint256[]","internalType":"uint256[]"}],"stateMutability":"view"},{"type":"function","name":"getAllUnfulfilledRequestIds","inputs":[],"outputs":[{"name":"","type":"uint256[]","internalType":"uint256[]"}],"stateMutability":"view"},{"type":"function","name":"getCountOfUnfulfilledRequestIds","inputs":[],"outputs":[{"name":"","type":"uint256","internalType":"uint256"}],"stateMutability":"view"},{"type":"function","name":"getPublicKey","inputs":[],"outputs":[{"name":"","type":"uint256[2]","internalType":"uint256[2]"},{"name":"","type":"uint256[2]","internalType":"uint256[2]"}],"stateMutability":"view"},{"type":"function","name":"getPublicKeyBytes","inputs":[],"outputs":[{"name":"","type":"bytes","internalType":"bytes"}],"stateMutability":"view"},{"type":"function","name":"getRequest","inputs":[{"name":"requestID","type":"uint256","internalType":"uint256"}],"outputs":[{"name":"","type":"tuple","internalType":"struct TypesLib.DecryptionRequest","components":[{"name":"schemeID","type":"string","internalType":"string"},{"name":"ciphertext","type":"bytes","internalType":"bytes"},{"name":"condition","type":"bytes","internalType":"bytes"},{"name":"decryptionKey","type":"bytes","internalType":"bytes"},{"name":"signature","type":"bytes","internalType":"bytes"},{"name":"callback","type":"address","internalType":"address"},{"name":"isFulfilled","type":"bool","internalType":"bool"}]}],"stateMutability":"view"},{"type":"function","name":"getRoleAdmin","inputs":[{"name":"role","type":"bytes32","internalType":"bytes32"}],"outputs":[{"name":"","type":"bytes32","internalType":"bytes32"}],"stateMutability":"view"},{"type":"function","name":"getRoleMember","inputs":[{"name":"role","type":"bytes32","internalType":"bytes32"},{"name":"index","type":"uint256","internalType":"uint256"}],"outputs":[{"name":"","type":"address","internalType":"address"}],"stateMutability":"view"},{"type":"function","name":"getRoleMemberCount","inputs":[{"name":"role","type":"bytes32","internalType":"bytes32"}],"outputs":[{"name":"","type":"uint256","internalType":"uint256"}],"stateMutability":"view"},{"type":"function","name":"getRoleMembers","inputs":[{"name":"role","type":"bytes32","internalType":"bytes32"}],"outputs":[{"name":"","type":"address[]","internalType":"address[]"}],"stateMutability":"view"},{"type":"function","name":"grantRole","inputs":[{"name":"role","type":"bytes32","internalType":"bytes32"},{"name":"account","type":"address","internalType":"address"}],"outputs":[],"stateMutability":"nonpayable"},{"type":"function","name":"hasErrored","inputs":[{"name":"requestID","type":"uint256","internalType":"uint256"}],"outputs":[{"name":"","type":"bool","internalType":"bool"}],"stateMutability":"view"},{"type":"function","name":"hasRole","inputs":[{"name":"role","type":"bytes32","internalType":"bytes32"},{"name":"account","type":"address","internalType":"address"}],"outputs":[{"name":"","type":"bool","internalType":"bool"}],"stateMutability":"view"},{"type":"function","name":"initialize","inputs":[{"name":"x","type":"uint256[2]","internalType":"uint256[2]"},{"name":"y","type":"uint256[2]","internalType":"uint256[2]"},{"name":"owner","type":"address","internalType":"address"},{"name":"_signatureSchemeAddressProvider","type":"address","internalType":"address"}],"outputs":[],"stateMutability":"nonpayable"},{"type":"function","name":"isInFlight","inputs":[{"name":"requestID","type":"uint256","internalType":"uint256"}],"outputs":[{"name":"","type":"bool","internalType":"bool"}],"stateMutability":"view"},{"type":"function","name":"lastRequestID","inputs":[],"outputs":[{"name":"","type":"uint256","internalType":"uint256"}],"stateMutability":"view"},{"type":"function","name":"multicall","inputs":[{"name":"data","type":"bytes[]","internalType":"bytes[]"}],"outputs":[{"name":"results","type":"bytes[]","internalType":"bytes[]"}],"stateMutability":"nonpayable"},{"type":"function","name":"proxiableUUID","inputs":[],"outputs":[{"name":"","type":"bytes32","internalType":"bytes32"}],"stateMutability":"view"},{"type":"function","name":"registerCiphertext","inputs":[{"name":"schemeID","type":"string","internalType":"string"},{"name":"ciphertext","type":"bytes","internalType":"bytes"},{"name":"condition","type":"bytes","internalType":"bytes"}],"outputs":[{"name":"","type":"uint256","internalType":"uint256"}],"stateMutability":"nonpayable"},{"type":"function","name":"renounceRole","inputs":[{"name":"role","type":"bytes32","internalType":"bytes32"},{"name":"callerConfirmation","type":"address","internalType":"address"}],"outputs":[],"stateMutability":"nonpayable"},{"type":"function","name":"requests","inputs":[{"name":"","type":"uint256","internalType":"uint256"}],"outputs":[{"name":"schemeID","type":"string","internalType":"string"},{"name":"ciphertext","type":"bytes","internalType":"bytes"},{"name":"condition","type":"bytes","internalType":"bytes"},{"name":"decryptionKey","type":"bytes","internalType":"bytes"},{"name":"signature","type":"bytes","internalType":"bytes"},{"name":"callback","type":"address","internalType":"address"},{"name":"isFulfilled","type":"bool","internalType":"bool"}],"stateMutability":"view"},{"type":"function","name":"retryCallback","inputs":[{"name":"requestID","type":"uint256","internalType":"uint256"}],"outputs":[],"stateMutability":"nonpayable"},{"type":"function","name":"revokeRole","inputs":[{"name":"role","type":"bytes32","internalType":"bytes32"},{"name":"account","type":"address","internalType":"address"}],"outputs":[],"stateMutability":"nonpayable"},{"type":"function","name":"setSignatureSchemeAddressProvider","inputs":[{"name":"newSignatureSchemeAddressProvider","type":"address","internalType":"address"}],"outputs":[],"stateMutability":"nonpayable"},{"type":"function","name":"signatureSchemeAddressProvider","inputs":[],"outputs":[{"name":"","type":"address","internalType":"contract ISignatureSchemeAddressProvider"}],"stateMutability":"view"},{"type":"function","name":"supportsInterface","inputs":[{"name":"interfaceId","type":"bytes4","internalType":"bytes4"}],"outputs":[{"name":"","type":"bool","internalType":"bool"}],"stateMutability":"view"},{"type":"function","name":"upgradeToAndCall","inputs":[{"name":"newImplementation","type":"address","internalType":"address"},{"name":"data","type":"bytes","internalType":"bytes"}],"outputs":[],"stateMutability":"payable"},{"type":"function","name":"version","inputs":[],"outputs":[{"name":"","type":"string","internalType":"string"}],"stateMutability":"pure"},{"type":"event","name":"DecryptionReceiverCallbackFailed","inputs":[{"name":"requestID","type":"uint256","indexed":false,"internalType":"uint256"}],"anonymous":false},{"type":"event","name":"DecryptionReceiverCallbackSuccess","inputs":[{"name":"requestID","type":"uint256","indexed":true,"internalType":"uint256"},{"name":"decryptionKey","type":"bytes","indexed":false,"internalType":"bytes"},{"name":"signature","type":"bytes","indexed":false,"internalType":"bytes"}],"anonymous":false},{"type":"event","name":"DecryptionRequested","inputs":[{"name":"requestID","type":"uint256","indexed":true,"internalType":"uint256"},{"name":"callback","type":"address","indexed":true,"internalType":"address"},{"name":"schemeID","type":"string","indexed":false,"internalType":"string"},{"name":"condition","type":"bytes","indexed":false,"internalType":"bytes"},{"name":"ciphertext","type":"bytes","indexed":false,"internalType":"bytes"},{"name":"requestedAt","type":"uint256","indexed":false,"internalType":"uint256"}],"anonymous":false},{"type":"event","name":"Initialized","inputs":[{"name":"version","type":"uint64","indexed":false,"internalType":"uint64"}],"anonymous":false},{"type":"event","name":"RoleAdminChanged","inputs":[{"name":"role","type":"bytes32","indexed":true,"internalType":"bytes32"},{"name":"previousAdminRole","type":"bytes32","indexed":true,"internalType":"bytes32"},{"name":"newAdminRole","type":"bytes32","indexed":true,"internalType":"bytes32"}],"anonymous":false},{"type":"event","name":"RoleGranted","inputs":[{"name":"role","type":"bytes32","indexed":true,"internalType":"bytes32"},{"name":"account","type":"address","indexed":true,"internalType":"address"},{"name":"sender","type":"address","indexed":true,"internalType":"address"}],"anonymous":false},{"type":"event","name":"RoleRevoked","inputs":[{"name":"role","type":"bytes32","indexed":true,"internalType":"bytes32"},{"name":"account","type":"address","indexed":true,"internalType":"address"},{"name":"sender","type":"address","indexed":true,"internalType":"address"}],"anonymous":false},{"type":"event","name":"SignatureSchemeAddressProviderUpdated","inputs":[{"name":"newSignatureSchemeAddressProvider","type":"address","indexed":true,"internalType":"address"}],"anonymous":false},{"type":"event","name":"Upgraded","inputs":[{"name":"implementation","type":"address","indexed":true,"internalType":"address"}],"anonymous":false},{"type":"error","name":"AccessControlBadConfirmation","inputs":[]},{"type":"error","name":"AccessControlUnauthorizedAccount","inputs":[{"name":"account","type":"address","internalType":"address"},{"name":"neededRole","type":"bytes32","internalType":"bytes32"}]},{"type":"error","name":"AddressEmptyCode","inputs":[{"name":"target","type":"address","internalType":"address"}]},{"type":"error","name":"ERC1967InvalidImplementation","inputs":[{"name":"implementation","type":"address","internalType":"address"}]},{"type":"error","name":"ERC1967NonPayable","inputs":[]},{"type":"error","name":"FailedCall","inputs":[]},{"type":"error","name":"InvalidInitialization","inputs":[]},{"type":"error","name":"NotInitializing","inputs":[]},{"type":"error","name":"UUPSUnauthorizedCallContext","inputs":[]},{"type":"error","name":"UUPSUnsupportedProxiableUUID","inputs":[{"name":"slot","type":"bytes32","internalType":"bytes32"}]}],"bytecode":{"object":"0x306080525f80805560e081815261010082905260a08181526101606040526101208381526101409390935260c0929092526001906200004290829060026200012e565b5060208201516200005a90600280840191906200012e565b50505034801562000069575f80fd5b50620000746200007a565b62000187565b7ff0c57e16840df040f15088dc2f81fe391c3923bec73e23a9662efc9c229c6a00805468010000000000000000900460ff1615620000cb5760405163f92ee8a960e01b815260040160405180910390fd5b80546001600160401b03908116146200012b5780546001600160401b0319166001600160401b0390811782556040519081527fc7f505b2f371ae2175ee4913f4499e1f2633a7b5936321eed1cdaeb6115181d29060200160405180910390a15b50565b82600281019282156200015f579160200282015b828111156200015f57825182559160200191906001019062000142565b506200016d92915062000171565b5090565b5b808211156200016d575f815560010162000172565b608051614640620001ae5f395f8181612c1801528181612c410152612e6201526146405ff3fe6080604052600436106101f5575f3560e01c806381d12c5811610117578063b0947289116100ac578063cd802c911161007c578063e63b5d5811610062578063e63b5d58146106c0578063e6b3ca71146106d4578063f87f0e6114610700575f80fd5b8063cd802c9114610682578063d547741f146106a1575f80fd5b8063b0947289146105f9578063bd13269714610618578063c58343ef14610637578063ca15c87314610663575f80fd5b8063a3246ad3116100e7578063a3246ad314610545578063ac9650d814610571578063acae9fee1461059d578063ad3cb1cc146105b1575f80fd5b806381d12c581461044c5780639010d07c1461047e57806391d14854146104c2578063a217fddf14610532575f80fd5b80634b96e1661161018d578063571d70871161015d578063571d7087146103d25780636f421ea9146103e6578063702ef38c146103fa57806375b238fc14610419575f80fd5b80634b96e1661461033c5780634f1ef2861461035d57806352d1902d1461037057806354fd4d5014610384575f80fd5b80632e334452116101c85780632e334452146102c85780632f2ff15d146102ea57806336568abe1461030957806347c0318614610328575f80fd5b80630138c60d146101f957806301ffc9a71461021a57806316cc9a981461024e578063248a9ca31461026d575b5f80fd5b348015610204575f80fd5b5061021861021336600461386b565b61071f565b005b348015610225575f80fd5b50610239610234366004613882565b610c7c565b60405190151581526020015b60405180910390f35b348015610259575f80fd5b506102186102683660046138e2565b610cd7565b348015610278575f80fd5b506102ba61028736600461386b565b5f9081527f02dd7bc7dec4dceedda775e58dd541e08a116c6c53815c0bd028192f7b626800602052604090206001015490565b604051908152602001610245565b3480156102d3575f80fd5b506102dc610d6e565b60405161024592919061391f565b3480156102f5575f80fd5b5061021861030436600461393a565b610de9565b348015610314575f80fd5b5061021861032336600461393a565b610e32565b348015610333575f80fd5b506102ba5f5481565b348015610347575f80fd5b50610350610e8b565b6040516102459190613968565b61021861036b366004613a30565b610e9c565b34801561037b575f80fd5b506102ba610ebb565b34801561038f575f80fd5b5060408051808201909152600581527f302e302e3100000000000000000000000000000000000000000000000000000060208201525b6040516102459190613b0a565b3480156103dd575f80fd5b50610350610ee9565b3480156103f1575f80fd5b50610350610ef5565b348015610405575f80fd5b50610218610414366004613b89565b610f01565b348015610424575f80fd5b506102ba7fa49807205ce4d355092ef5a8a18f56e8913cf4a201fbe287825b095693c2177581565b348015610457575f80fd5b5061046b61046636600461386b565b611205565b6040516102459796959493929190613be0565b348015610489575f80fd5b5061049d610498366004613c72565b61150a565b60405173ffffffffffffffffffffffffffffffffffffffff9091168152602001610245565b3480156104cd575f80fd5b506102396104dc36600461393a565b5f9182527f02dd7bc7dec4dceedda775e58dd541e08a116c6c53815c0bd028192f7b6268006020908152604080842073ffffffffffffffffffffffffffffffffffffffff93909316845291905290205460ff1690565b34801561053d575f80fd5b506102ba5f81565b348015610550575f80fd5b5061056461055f36600461386b565b61154a565b6040516102459190613c92565b34801561057c575f80fd5b5061059061058b366004613cdf565b61158d565b6040516102459190613d4e565b3480156105a8575f80fd5b506103c5611673565b3480156105bc575f80fd5b506103c56040518060400160405280600581526020017f352e302e3000000000000000000000000000000000000000000000000000000081525081565b348015610604575f80fd5b5061023961061336600461386b565b6116ee565b348015610623575f80fd5b50610218610632366004613e13565b6116fa565b348015610642575f80fd5b5061065661065136600461386b565b611f91565b6040516102459190613e87565b34801561066e575f80fd5b506102ba61067d36600461386b565b612319565b34801561068d575f80fd5b5061023961069c36600461386b565b612350565b3480156106ac575f80fd5b506102186106bb36600461393a565b61236d565b3480156106cb575f80fd5b506102ba6123b0565b3480156106df575f80fd5b5060065461049d9073ffffffffffffffffffffffffffffffffffffffff1681565b34801561070b575f80fd5b506102ba61071a366004613f57565b6123bb565b610728816116ee565b6107b9576040517f08c379a000000000000000000000000000000000000000000000000000000000815260206004820152602360248201527f4e6f20726571756573742077697468207370656369666965642072657175657360448201527f744944000000000000000000000000000000000000000000000000000000000060648201526084015b60405180910390fd5b5f81815260056020526040808220815160e081019092528054829082906107df90613fea565b80601f016020809104026020016040519081016040528092919081815260200182805461080b90613fea565b80156108565780601f1061082d57610100808354040283529160200191610856565b820191905f5260205f20905b81548152906001019060200180831161083957829003601f168201915b5050505050815260200160018201805461086f90613fea565b80601f016020809104026020016040519081016040528092919081815260200182805461089b90613fea565b80156108e65780601f106108bd576101008083540402835291602001916108e6565b820191905f5260205f20905b8154815290600101906020018083116108c957829003601f168201915b505050505081526020016002820180546108ff90613fea565b80601f016020809104026020016040519081016040528092919081815260200182805461092b90613fea565b80156109765780601f1061094d57610100808354040283529160200191610976565b820191905f5260205f20905b81548152906001019060200180831161095957829003601f168201915b5050505050815260200160038201805461098f90613fea565b80601f01602080910402602001604051908101604052809291908181526020018280546109bb90613fea565b8015610a065780601f106109dd57610100808354040283529160200191610a06565b820191905f5260205f20905b8154815290600101906020018083116109e957829003601f168201915b50505050508152602001600482018054610a1f90613fea565b80601f0160208091040260200160405190810160405280929190818152602001828054610a4b90613fea565b8015610a965780601f10610a6d57610100808354040283529160200191610a96565b820191905f5260205f20905b815481529060010190602001808311610a7957829003601f168201915b50505091835250506005919091015473ffffffffffffffffffffffffffffffffffffffff80821660208401527401000000000000000000000000000000000000000090910460ff16151560409283015260a08301516060840151608085015193519495505f9491909216927f5d3be0010000000000000000000000000000000000000000000000000000000092610b329288929060240161403b565b60408051601f198184030181529181526020820180517bffffffffffffffffffffffffffffffffffffffffffffffffffffffff167fffffffff00000000000000000000000000000000000000000000000000000000909416939093179092529051610b9d919061406f565b5f604051808303815f865af19150503d805f8114610bd6576040519150601f19603f3d011682016040523d82523d5f602084013e610bdb565b606091505b5050905080610c1c576040518381527f3fed05c5d3a79e0e2f23ffd594267f0e29799ad1b4b6a7756138d5247baa4a7b9060200160405180910390a1505050565b610c27600b84612a9a565b50610c33600784612aa5565b50827f0a1f5b3782d8f604353407c980dbfe6b55499c5b92cb8c39f089c73f348407e683606001518460800151604051610c6e92919061408a565b60405180910390a25b505050565b5f7fffffffff0000000000000000000000000000000000000000000000000000000082167f5a05180f000000000000000000000000000000000000000000000000000000001480610cd15750610cd182612ab0565b92915050565b610d007fa49807205ce4d355092ef5a8a18f56e8913cf4a201fbe287825b095693c21775612b46565b600680547fffffffffffffffffffffffff00000000000000000000000000000000000000001673ffffffffffffffffffffffffffffffffffffffff83169081179091556040517f7724bcb43a09ae6582affdee2f0ace931e26f2ffa8b5c334baf0a39e9dc03426905f90a250565b610d766137fb565b610d7e6137fb565b604080518082019182905260019160039190839060029082845b815481526020019060010190808311610d98575050604080518082019182905294965085935060029250905082845b815481526020019060010190808311610dc75750505050509050915091509091565b5f8281527f02dd7bc7dec4dceedda775e58dd541e08a116c6c53815c0bd028192f7b6268006020526040902060010154610e2281612b46565b610e2c8383612b53565b50505050565b73ffffffffffffffffffffffffffffffffffffffff81163314610e81576040517f6697b23200000000000000000000000000000000000000000000000000000000815260040160405180910390fd5b610c778282612ba8565b6060610e976009612bf4565b905090565b610ea4612c00565b610ead82612d06565b610eb78282612d2f565b5050565b5f610ec4612e4a565b507f360894a13ba1a3210667c828492db98dca3e2076cc3735a920a3ca505d382bbc90565b6060610e976007612bf4565b6060610e97600b612bf4565b7ff0c57e16840df040f15088dc2f81fe391c3923bec73e23a9662efc9c229c6a00805468010000000000000000810460ff16159067ffffffffffffffff165f81158015610f4b5750825b90505f8267ffffffffffffffff166001148015610f675750303b155b905081158015610f75575080155b15610fac576040517ff92ee8a900000000000000000000000000000000000000000000000000000000815260040160405180910390fd5b84547fffffffffffffffffffffffffffffffffffffffffffffffff0000000000000000166001178555831561100d5784547fffffffffffffffffffffffffffffffffffffffffffffff00ffffffffffffffff16680100000000000000001785555b611015612eb9565b61101d612eb9565b6040805180820190915289815260208101899052600161103f818c6002613819565b5060208201516110559060028084019190613819565b509050506110837fa49807205ce4d355092ef5a8a18f56e8913cf4a201fbe287825b095693c2177588612b53565b6110e9576040517f08c379a000000000000000000000000000000000000000000000000000000000815260206004820152601160248201527f4772616e7420726f6c65206661696c656400000000000000000000000000000060448201526064016107b0565b6110f35f88612b53565b611159576040517f08c379a000000000000000000000000000000000000000000000000000000000815260206004820152601160248201527f4772616e7420726f6c65206661696c656400000000000000000000000000000060448201526064016107b0565b600680547fffffffffffffffffffffffff00000000000000000000000000000000000000001673ffffffffffffffffffffffffffffffffffffffff881617905583156111fa5784547fffffffffffffffffffffffffffffffffffffffffffffff00ffffffffffffffff168555604051600181527fc7f505b2f371ae2175ee4913f4499e1f2633a7b5936321eed1cdaeb6115181d29060200160405180910390a15b505050505050505050565b60056020525f908152604090208054819061121f90613fea565b80601f016020809104026020016040519081016040528092919081815260200182805461124b90613fea565b80156112965780601f1061126d57610100808354040283529160200191611296565b820191905f5260205f20905b81548152906001019060200180831161127957829003601f168201915b5050505050908060010180546112ab90613fea565b80601f01602080910402602001604051908101604052809291908181526020018280546112d790613fea565b80156113225780601f106112f957610100808354040283529160200191611322565b820191905f5260205f20905b81548152906001019060200180831161130557829003601f168201915b50505050509080600201805461133790613fea565b80601f016020809104026020016040519081016040528092919081815260200182805461136390613fea565b80156113ae5780601f10611385576101008083540402835291602001916113ae565b820191905f5260205f20905b81548152906001019060200180831161139157829003601f168201915b5050505050908060030180546113c390613fea565b80601f01602080910402602001604051908101604052809291908181526020018280546113ef90613fea565b801561143a5780601f106114115761010080835404028352916020019161143a565b820191905f5260205f20905b81548152906001019060200180831161141d57829003601f168201915b50505050509080600401805461144f90613fea565b80601f016020809104026020016040519081016040528092919081815260200182805461147b90613fea565b80156114c65780601f1061149d576101008083540402835291602001916114c6565b820191905f5260205f20905b8154815290600101906020018083116114a957829003601f168201915b5050506005909301549192505073ffffffffffffffffffffffffffffffffffffffff81169060ff740100000000000000000000000000000000000000009091041687565b5f8281527fc1f6fe24621ce81ec5827caf0253cadb74709b061630e6b55e823717059320006020819052604082206115429084612ec1565b949350505050565b5f8181527fc1f6fe24621ce81ec5827caf0253cadb74709b061630e6b55e82371705932000602081905260409091206060919061158690612bf4565b9392505050565b604080515f8152602081019091526060908267ffffffffffffffff8111156115b7576115b76139ab565b6040519080825280602002602001820160405280156115ea57816020015b60608152602001906001900390816115d55790505b5091505f5b8381101561166b576116463086868481811061160d5761160d6140ee565b905060200281019061161f919061411b565b856040516020016116329392919061417c565b604051602081830303815290604052612ecc565b838281518110611658576116586140ee565b60209081029190910101526001016115ef565b505092915050565b6040805160808101808352606092610e979291600191839190820190839060029082845b81548152602001906001019080831161169757505050918352505060408051808201918290526020909201919060028481019182845b8154815260200190600101908083116116cd57505050505081525050612f4b565b5f610cd1600b83612fa7565b6117237fa49807205ce4d355092ef5a8a18f56e8913cf4a201fbe287825b095693c21775612b46565b61172c85612350565b6117b8576040517f08c379a000000000000000000000000000000000000000000000000000000000815260206004820152602360248201527f4e6f20726571756573742077697468207370656369666965642072657175657360448201527f744944000000000000000000000000000000000000000000000000000000000060648201526084016107b0565b5f85815260056020526040808220815160e081019092528054829082906117de90613fea565b80601f016020809104026020016040519081016040528092919081815260200182805461180a90613fea565b80156118555780601f1061182c57610100808354040283529160200191611855565b820191905f5260205f20905b81548152906001019060200180831161183857829003601f168201915b5050505050815260200160018201805461186e90613fea565b80601f016020809104026020016040519081016040528092919081815260200182805461189a90613fea565b80156118e55780601f106118bc576101008083540402835291602001916118e5565b820191905f5260205f20905b8154815290600101906020018083116118c857829003601f168201915b505050505081526020016002820180546118fe90613fea565b80601f016020809104026020016040519081016040528092919081815260200182805461192a90613fea565b80156119755780601f1061194c57610100808354040283529160200191611975565b820191905f5260205f20905b81548152906001019060200180831161195857829003601f168201915b5050505050815260200160038201805461198e90613fea565b80601f01602080910402602001604051908101604052809291908181526020018280546119ba90613fea565b8015611a055780601f106119dc57610100808354040283529160200191611a05565b820191905f5260205f20905b8154815290600101906020018083116119e857829003601f168201915b50505050508152602001600482018054611a1e90613fea565b80601f0160208091040260200160405190810160405280929190818152602001828054611a4a90613fea565b8015611a955780601f10611a6c57610100808354040283529160200191611a95565b820191905f5260205f20905b815481529060010190602001808311611a7857829003601f168201915b50505091835250506005919091015473ffffffffffffffffffffffffffffffffffffffff80821660208401527401000000000000000000000000000000000000000090910460ff161515604092830152825160065492517f5bb09cf8000000000000000000000000000000000000000000000000000000008152939450925f9290911690635bb09cf890611b2d908590600401613b0a565b602060405180830381865afa158015611b48573d5f803e3d5ffd5b505050506040513d601f19601f82011682018060405250810190611b6c91906141a1565b905073ffffffffffffffffffffffffffffffffffffffff8116611beb576040517f08c379a000000000000000000000000000000000000000000000000000000000815260206004820152600e60248201527f696e76616c696420736368656d6500000000000000000000000000000000000060448201526064016107b0565b60408084015190517feae1e15b00000000000000000000000000000000000000000000000000000000815282915f9173ffffffffffffffffffffffffffffffffffffffff84169163eae1e15b91611c459190600401613b0a565b5f60405180830381865afa158015611c5f573d5f803e3d5ffd5b505050506040513d5f823e601f3d908101601f19168201604052611c8691908101906141bc565b90508173ffffffffffffffffffffffffffffffffffffffff1663f6e548e9828989611caf611673565b6040518563ffffffff1660e01b8152600401611cce949392919061424e565b602060405180830381865afa158015611ce9573d5f803e3d5ffd5b505050506040513d601f19601f82011682018060405250810190611d0d9190614292565b611d73576040517f08c379a000000000000000000000000000000000000000000000000000000000815260206004820152601d60248201527f5369676e617475726520766572696669636174696f6e206661696c656400000060448201526064016107b0565b5f8560a0015173ffffffffffffffffffffffffffffffffffffffff16635d3be00160e01b8c8c8c8c8c604051602401611db09594939291906142b1565b60408051601f198184030181529181526020820180517bffffffffffffffffffffffffffffffffffffffffffffffffffffffff167fffffffff00000000000000000000000000000000000000000000000000000000909416939093179092529051611e1b919061406f565b5f604051808303815f865af19150503d805f8114611e54576040519150601f19603f3d011682016040523d82523d5f602084013e611e59565b606091505b50505f8c8152600560205260409020909150600301611e798a8c83614334565b505f8b8152600560205260409020600401611e95888a83614334565b505f8b81526005602081905260409091200180547fffffffffffffffffffffff00ffffffffffffffffffffffffffffffffffffffff1674010000000000000000000000000000000000000000179055611eef60098c612a9a565b5080611f3957611f00600b8c612aa5565b506040518b81527f3fed05c5d3a79e0e2f23ffd594267f0e29799ad1b4b6a7756138d5247baa4a7b9060200160405180910390a1611f84565b611f4460078c612aa5565b508a7f0a1f5b3782d8f604353407c980dbfe6b55499c5b92cb8c39f089c73f348407e68b8b8b8b604051611f7b949392919061442c565b60405180910390a25b5050505050505050505050565b611fe76040518060e0016040528060608152602001606081526020016060815260200160608152602001606081526020015f73ffffffffffffffffffffffffffffffffffffffff1681526020015f151581525090565b5f8281526005602052604090819020815160e0810190925280548290829061200e90613fea565b80601f016020809104026020016040519081016040528092919081815260200182805461203a90613fea565b80156120855780601f1061205c57610100808354040283529160200191612085565b820191905f5260205f20905b81548152906001019060200180831161206857829003601f168201915b5050505050815260200160018201805461209e90613fea565b80601f01602080910402602001604051908101604052809291908181526020018280546120ca90613fea565b80156121155780601f106120ec57610100808354040283529160200191612115565b820191905f5260205f20905b8154815290600101906020018083116120f857829003601f168201915b5050505050815260200160028201805461212e90613fea565b80601f016020809104026020016040519081016040528092919081815260200182805461215a90613fea565b80156121a55780601f1061217c576101008083540402835291602001916121a5565b820191905f5260205f20905b81548152906001019060200180831161218857829003601f168201915b505050505081526020016003820180546121be90613fea565b80601f01602080910402602001604051908101604052809291908181526020018280546121ea90613fea565b80156122355780601f1061220c57610100808354040283529160200191612235565b820191905f5260205f20905b81548152906001019060200180831161221857829003601f168201915b5050505050815260200160048201805461224e90613fea565b80601f016020809104026020016040519081016040528092919081815260200182805461227a90613fea565b80156122c55780601f1061229c576101008083540402835291602001916122c5565b820191905f5260205f20905b8154815290600101906020018083116122a857829003601f168201915b50505091835250506005919091015473ffffffffffffffffffffffffffffffffffffffff8116602083015274010000000000000000000000000000000000000000900460ff16151560409091015292915050565b5f8181527fc1f6fe24621ce81ec5827caf0253cadb74709b061630e6b55e8237170593200060208190526040822061158690612fbe565b5f61235c600983612fa7565b80610cd15750610cd1600b83612fa7565b5f8281527f02dd7bc7dec4dceedda775e58dd541e08a116c6c53815c0bd028192f7b62680060205260409020600101546123a681612b46565b610e2c8383612ba8565b5f610e976009612fbe565b5f60015f808282546123cd9190614452565b90915550506006546040517f2fc9fa3300000000000000000000000000000000000000000000000000000000815273ffffffffffffffffffffffffffffffffffffffff90911690632fc9fa339061242a908a908a90600401614465565b602060405180830381865afa158015612445573d5f803e3d5ffd5b505050506040513d601f19601f820116820180604052508101906124699190614292565b6124cf576040517f08c379a000000000000000000000000000000000000000000000000000000000815260206004820152601e60248201527f5369676e617475726520736368656d65206e6f7420737570706f72746564000060448201526064016107b0565b612516600161100087878080601f0160208091040260200160405190810160405280939291908181526020018383808284375f92019190915250929493925050612fc79050565b6125a2576040517f08c379a000000000000000000000000000000000000000000000000000000000815260206004820152602260248201527f4d657373616765206661696c6564206c656e67746820626f756e64732063686560448201527f636b00000000000000000000000000000000000000000000000000000000000060648201526084016107b0565b6125e85f61100085858080601f0160208091040260200160405190810160405280939291908181526020018383808284375f92019190915250929493925050612fc79050565b612673576040517f08c379a0000000000000000000000000000000000000000000000000000000008152602060048201526024808201527f436f6e646974696f6e206661696c6564206c656e67746820626f756e6473206360448201527f6865636b0000000000000000000000000000000000000000000000000000000060648201526084016107b0565b818015612745576126b884848080601f0160208091040260200160405190810160405280939291908181526020018383808284375f9201919091525061307192505050565b15612745576040517f08c379a000000000000000000000000000000000000000000000000000000000815260206004820152602360248201527f436f6e646974696f6e2062797465732063616e6e6f7420626520616c6c207a6560448201527f726f73000000000000000000000000000000000000000000000000000000000060648201526084016107b0565b6006546040517f5bb09cf80000000000000000000000000000000000000000000000000000000081525f9173ffffffffffffffffffffffffffffffffffffffff1690635bb09cf89061279d908c908c90600401614465565b602060405180830381865afa1580156127b8573d5f803e3d5ffd5b505050506040513d601f19601f820116820180604052508101906127dc91906141a1565b905073ffffffffffffffffffffffffffffffffffffffff811661285b576040517f08c379a000000000000000000000000000000000000000000000000000000000815260206004820152601860248201527f696e76616c6964207369676e617475726520736368656d65000000000000000060448201526064016107b0565b6040518060e001604052808a8a8080601f0160208091040260200160405190810160405280939291908181526020018383808284375f92019190915250505090825250604080516020601f8b0181900481028201810190925289815291810191908a908a90819084018382808284375f92019190915250505090825250604080516020601f8901819004810282018101909252878152918101919088908890819084018382808284375f92018290525093855250506040805160208181018352848252808601919091528151808201835284815282860152336060860152608090940183905282548352600590935250208151819061295a9082614478565b506020820151600182019061296f9082614478565b50604082015160028201906129849082614478565b50606082015160038201906129999082614478565b50608082015160048201906129ae9082614478565b5060a08201516005909101805460c090930151151574010000000000000000000000000000000000000000027fffffffffffffffffffffff00000000000000000000000000000000000000000090931673ffffffffffffffffffffffffffffffffffffffff909216919091179190911790555f54612a2e90600990612aa5565b503373ffffffffffffffffffffffffffffffffffffffff165f547f133b1acfa49920f88bc8c23faeb2ba43b75b3d6c453290a824f3c85e7733df138b8b89898d8d42604051612a839796959493929190614576565b60405180910390a350505f54979650505050505050565b5f61158683836130d4565b5f61158683836131b7565b5f7fffffffff0000000000000000000000000000000000000000000000000000000082167f7965db0b000000000000000000000000000000000000000000000000000000001480610cd157507f01ffc9a7000000000000000000000000000000000000000000000000000000007fffffffff00000000000000000000000000000000000000000000000000000000831614610cd1565b612b508133613203565b50565b5f7fc1f6fe24621ce81ec5827caf0253cadb74709b061630e6b55e8237170593200081612b8085856132a9565b90508015611542575f858152602083905260409020612b9f90856133be565b50949350505050565b5f7fc1f6fe24621ce81ec5827caf0253cadb74709b061630e6b55e8237170593200081612bd585856133df565b90508015611542575f858152602083905260409020612b9f90856134bb565b60605f611586836134dc565b3073ffffffffffffffffffffffffffffffffffffffff7f0000000000000000000000000000000000000000000000000000000000000000161480612ccd57507f000000000000000000000000000000000000000000000000000000000000000073ffffffffffffffffffffffffffffffffffffffff16612cb47f360894a13ba1a3210667c828492db98dca3e2076cc3735a920a3ca505d382bbc5473ffffffffffffffffffffffffffffffffffffffff1690565b73ffffffffffffffffffffffffffffffffffffffff1614155b15612d04576040517fe07c8dba00000000000000000000000000000000000000000000000000000000815260040160405180910390fd5b565b612b507fa49807205ce4d355092ef5a8a18f56e8913cf4a201fbe287825b095693c21775612b46565b8173ffffffffffffffffffffffffffffffffffffffff166352d1902d6040518163ffffffff1660e01b8152600401602060405180830381865afa925050508015612d96575060408051601f3d908101601f19168201909252612d93918101906145c6565b60015b612de4576040517f4c9c8ce300000000000000000000000000000000000000000000000000000000815273ffffffffffffffffffffffffffffffffffffffff831660048201526024016107b0565b7f360894a13ba1a3210667c828492db98dca3e2076cc3735a920a3ca505d382bbc8114612e40576040517faa1d49a4000000000000000000000000000000000000000000000000000000008152600481018290526024016107b0565b610c778383613535565b3073ffffffffffffffffffffffffffffffffffffffff7f00000000000000000000000000000000000000000000000000000000000000001614612d04576040517fe07c8dba00000000000000000000000000000000000000000000000000000000815260040160405180910390fd5b612d04613597565b5f61158683836135fe565b60605f808473ffffffffffffffffffffffffffffffffffffffff1684604051612ef5919061406f565b5f60405180830381855af49150503d805f8114612f2d576040519150601f19603f3d011682016040523d82523d5f602084013e612f32565b606091505b5091509150612f42858383613624565b95945050505050565b60408051608080825260a082019092526060915f91906020820181803683375050845180516020918201519682015180519083015192850191909152604084019690965260608301959095525060808101939093525090919050565b5f8181526001830160205260408120541515611586565b5f610cd1825490565b5f81831115613058576040517f08c379a000000000000000000000000000000000000000000000000000000000815260206004820152603a60248201527f496e76616c696420626f756e64733a206d696e4c656e6774682063616e6e6f7460448201527f2062652067726561746572207468616e206d61784c656e67746800000000000060648201526084016107b0565b8351838110801590612f42575091909111159392505050565b5f805b82518110156130cb5782818151811061308f5761308f6140ee565b01602001517fff0000000000000000000000000000000000000000000000000000000000000016156130c357505f92915050565b600101613074565b50600192915050565b5f81815260018301602052604081205480156131ae575f6130f66001836140db565b85549091505f90613109906001906140db565b9050808214613168575f865f018281548110613127576131276140ee565b905f5260205f200154905080875f018481548110613147576131476140ee565b5f918252602080832090910192909255918252600188019052604090208390555b8554869080613179576131796145dd565b600190038181905f5260205f20015f90559055856001015f8681526020019081526020015f205f905560019350505050610cd1565b5f915050610cd1565b5f8181526001830160205260408120546131fc57508154600181810184555f848152602080822090930184905584548482528286019093526040902091909155610cd1565b505f610cd1565b5f8281527f02dd7bc7dec4dceedda775e58dd541e08a116c6c53815c0bd028192f7b6268006020908152604080832073ffffffffffffffffffffffffffffffffffffffff8516845290915290205460ff16610eb7576040517fe2517d3f00000000000000000000000000000000000000000000000000000000815273ffffffffffffffffffffffffffffffffffffffff82166004820152602481018390526044016107b0565b5f8281527f02dd7bc7dec4dceedda775e58dd541e08a116c6c53815c0bd028192f7b6268006020818152604080842073ffffffffffffffffffffffffffffffffffffffff8616855290915282205460ff166131ae575f8481526020828152604080832073ffffffffffffffffffffffffffffffffffffffff87168452909152902080547fffffffffffffffffffffffffffffffffffffffffffffffffffffffffffffff0016600117905561335a3390565b73ffffffffffffffffffffffffffffffffffffffff168373ffffffffffffffffffffffffffffffffffffffff16857f2f8788117e7eff1d82e926ec794901d17c78024a50270940304540a733656f0d60405160405180910390a46001915050610cd1565b5f6115868373ffffffffffffffffffffffffffffffffffffffff84166131b7565b5f8281527f02dd7bc7dec4dceedda775e58dd541e08a116c6c53815c0bd028192f7b6268006020818152604080842073ffffffffffffffffffffffffffffffffffffffff8616855290915282205460ff16156131ae575f8481526020828152604080832073ffffffffffffffffffffffffffffffffffffffff8716808552925280832080547fffffffffffffffffffffffffffffffffffffffffffffffffffffffffffffff0016905551339287917ff6391f5c32d9c69d2a47ea670b442974b53935d1edc7fd64eb21e047a839171b9190a46001915050610cd1565b5f6115868373ffffffffffffffffffffffffffffffffffffffff84166130d4565b6060815f0180548060200260200160405190810160405280929190818152602001828054801561352957602002820191905f5260205f20905b815481526020019060010190808311613515575b50505050509050919050565b61353e826136b3565b60405173ffffffffffffffffffffffffffffffffffffffff8316907fbc7cd75a20ee27fd9adebab32041f755214dbc6bffa90cc0225b39da2e5c2d3b905f90a280511561358f57610c778282612ecc565b610eb7613781565b7ff0c57e16840df040f15088dc2f81fe391c3923bec73e23a9662efc9c229c6a005468010000000000000000900460ff16612d04576040517fd7e6bcf800000000000000000000000000000000000000000000000000000000815260040160405180910390fd5b5f825f018281548110613613576136136140ee565b905f5260205f200154905092915050565b60608261363957613634826137b9565b611586565b815115801561365d575073ffffffffffffffffffffffffffffffffffffffff84163b155b156136ac576040517f9996b31500000000000000000000000000000000000000000000000000000000815273ffffffffffffffffffffffffffffffffffffffff851660048201526024016107b0565b5080611586565b8073ffffffffffffffffffffffffffffffffffffffff163b5f0361371b576040517f4c9c8ce300000000000000000000000000000000000000000000000000000000815273ffffffffffffffffffffffffffffffffffffffff821660048201526024016107b0565b7f360894a13ba1a3210667c828492db98dca3e2076cc3735a920a3ca505d382bbc80547fffffffffffffffffffffffff00000000000000000000000000000000000000001673ffffffffffffffffffffffffffffffffffffffff92909216919091179055565b3415612d04576040517fb398979f00000000000000000000000000000000000000000000000000000000815260040160405180910390fd5b8051156137c95780518082602001fd5b6040517fd6bda27500000000000000000000000000000000000000000000000000000000815260040160405180910390fd5b60405180604001604052806002906020820280368337509192915050565b8260028101928215613847579160200282015b8281111561384757825182559160200191906001019061382c565b50613853929150613857565b5090565b5b80821115613853575f8155600101613858565b5f6020828403121561387b575f80fd5b5035919050565b5f60208284031215613892575f80fd5b81357fffffffff0000000000000000000000000000000000000000000000000000000081168114611586575f80fd5b73ffffffffffffffffffffffffffffffffffffffff81168114612b50575f80fd5b5f602082840312156138f2575f80fd5b8135611586816138c1565b805f5b6002811015610e2c578151845260209384019390910190600101613900565b6080810161392d82856138fd565b61158660408301846138fd565b5f806040838503121561394b575f80fd5b82359150602083013561395d816138c1565b809150509250929050565b602080825282518282018190525f9190848201906040850190845b8181101561399f57835183529284019291840191600101613983565b50909695505050505050565b7f4e487b71000000000000000000000000000000000000000000000000000000005f52604160045260245ffd5b604051601f8201601f1916810167ffffffffffffffff81118282101715613a0157613a016139ab565b604052919050565b5f67ffffffffffffffff821115613a2257613a226139ab565b50601f01601f191660200190565b5f8060408385031215613a41575f80fd5b8235613a4c816138c1565b9150602083013567ffffffffffffffff811115613a67575f80fd5b8301601f81018513613a77575f80fd5b8035613a8a613a8582613a09565b6139d8565b818152866020838501011115613a9e575f80fd5b816020840160208301375f602083830101528093505050509250929050565b5f5b83811015613ad7578181015183820152602001613abf565b50505f910152565b5f8151808452613af6816020860160208601613abd565b601f01601f19169290920160200192915050565b602081525f6115866020830184613adf565b5f82601f830112613b2b575f80fd5b6040516040810181811067ffffffffffffffff82111715613b4e57613b4e6139ab565b8060405250806040840185811115613b64575f80fd5b845b81811015613b7e578035835260209283019201613b66565b509195945050505050565b5f805f8060c08587031215613b9c575f80fd5b613ba68686613b1c565b9350613bb58660408701613b1c565b92506080850135613bc5816138c1565b915060a0850135613bd5816138c1565b939692955090935050565b60e081525f613bf260e083018a613adf565b8281036020840152613c04818a613adf565b90508281036040840152613c188189613adf565b90508281036060840152613c2c8188613adf565b90508281036080840152613c408187613adf565b73ffffffffffffffffffffffffffffffffffffffff9590951660a0840152505090151560c09091015295945050505050565b5f8060408385031215613c83575f80fd5b50508035926020909101359150565b602080825282518282018190525f9190848201906040850190845b8181101561399f57835173ffffffffffffffffffffffffffffffffffffffff1683529284019291840191600101613cad565b5f8060208385031215613cf0575f80fd5b823567ffffffffffffffff80821115613d07575f80fd5b818501915085601f830112613d1a575f80fd5b813581811115613d28575f80fd5b8660208260051b8501011115613d3c575f80fd5b60209290920196919550909350505050565b5f60208083016020845280855180835260408601915060408160051b8701019250602087015f5b82811015613dc1577fffffffffffffffffffffffffffffffffffffffffffffffffffffffffffffffc0888603018452613daf858351613adf565b94509285019290850190600101613d75565b5092979650505050505050565b5f8083601f840112613dde575f80fd5b50813567ffffffffffffffff811115613df5575f80fd5b602083019150836020828501011115613e0c575f80fd5b9250929050565b5f805f805f60608688031215613e27575f80fd5b85359450602086013567ffffffffffffffff80821115613e45575f80fd5b613e5189838a01613dce565b90965094506040880135915080821115613e69575f80fd5b50613e7688828901613dce565b969995985093965092949392505050565b602081525f825160e06020840152613ea3610100840182613adf565b90506020840151601f1980858403016040860152613ec18383613adf565b92506040860151915080858403016060860152613ede8383613adf565b92506060860151915080858403016080860152613efb8383613adf565b925060808601519150808584030160a086015250613f198282613adf565b91505073ffffffffffffffffffffffffffffffffffffffff60a08501511660c084015260c0840151613f4f60e085018215159052565b509392505050565b5f805f805f8060608789031215613f6c575f80fd5b863567ffffffffffffffff80821115613f83575f80fd5b613f8f8a838b01613dce565b90985096506020890135915080821115613fa7575f80fd5b613fb38a838b01613dce565b90965094506040890135915080821115613fcb575f80fd5b50613fd889828a01613dce565b979a9699509497509295939492505050565b600181811c90821680613ffe57607f821691505b602082108103614035577f4e487b71000000000000000000000000000000000000000000000000000000005f52602260045260245ffd5b50919050565b838152606060208201525f6140536060830185613adf565b82810360408401526140658185613adf565b9695505050505050565b5f8251614080818460208701613abd565b9190910192915050565b604081525f61409c6040830185613adf565b8281036020840152612f428185613adf565b7f4e487b71000000000000000000000000000000000000000000000000000000005f52601160045260245ffd5b81810381811115610cd157610cd16140ae565b7f4e487b71000000000000000000000000000000000000000000000000000000005f52603260045260245ffd5b5f8083357fffffffffffffffffffffffffffffffffffffffffffffffffffffffffffffffe184360301811261414e575f80fd5b83018035915067ffffffffffffffff821115614168575f80fd5b602001915036819003821315613e0c575f80fd5b828482375f8382015f81528351614197818360208801613abd565b0195945050505050565b5f602082840312156141b1575f80fd5b8151611586816138c1565b5f602082840312156141cc575f80fd5b815167ffffffffffffffff8111156141e2575f80fd5b8201601f810184136141f2575f80fd5b8051614200613a8582613a09565b818152856020838501011115614214575f80fd5b612f42826020830160208601613abd565b81835281816020850137505f602082840101525f6020601f19601f840116840101905092915050565b606081525f6142606060830187613adf565b8281036020840152614273818688614225565b905082810360408401526142878185613adf565b979650505050505050565b5f602082840312156142a2575f80fd5b81518015158114611586575f80fd5b858152606060208201525f6142ca606083018688614225565b82810360408401526142dd818587614225565b98975050505050505050565b601f821115610c7757805f5260205f20601f840160051c8101602085101561430e5750805b601f840160051c820191505b8181101561432d575f815560010161431a565b5050505050565b67ffffffffffffffff83111561434c5761434c6139ab565b6143608361435a8354613fea565b836142e9565b5f601f8411600181146143b0575f851561437a5750838201355b7fffffffffffffffffffffffffffffffffffffffffffffffffffffffffffffffff600387901b1c1916600186901b17835561432d565b5f83815260208120601f198716915b828110156143df57868501358255602094850194600190920191016143bf565b508682101561441a577fffffffffffffffffffffffffffffffffffffffffffffffffffffffffffffffff60f88860031b161c19848701351681555b505060018560011b0183555050505050565b604081525f61443f604083018688614225565b8281036020840152614287818587614225565b80820180821115610cd157610cd16140ae565b602081525f611542602083018486614225565b815167ffffffffffffffff811115614492576144926139ab565b6144a6816144a08454613fea565b846142e9565b602080601f8311600181146144f8575f84156144c25750858301515b7fffffffffffffffffffffffffffffffffffffffffffffffffffffffffffffffff600386901b1c1916600185901b17855561456e565b5f85815260208120601f198616915b8281101561452657888601518255948401946001909101908401614507565b508582101561456257878501517fffffffffffffffffffffffffffffffffffffffffffffffffffffffffffffffff600388901b60f8161c191681555b505060018460011b0185555b505050505050565b608081525f61458960808301898b614225565b828103602084015261459c81888a614225565b905082810360408401526145b1818688614225565b91505082606083015298975050505050505050565b5f602082840312156145d6575f80fd5b5051919050565b7f4e487b71000000000000000000000000000000000000000000000000000000005f52603160045260245ffdfea2646970667358221220fb3a3ae2f363f7ade11c240ba8788aba1aee5628861b3bf575cf4c692709bc4164736f6c63430008180033","linkReferences":{}},"methodIdentifiers":{"ADMIN_ROLE()":"75b238fc","DEFAULT_ADMIN_ROLE()":"a217fddf","UPGRADE_INTERFACE_VERSION()":"ad3cb1cc","fulfilDecryptionRequest(uint256,bytes,bytes)":"bd132697","getAllErroredRequestIds()":"6f421ea9","getAllFulfilledRequestIds()":"571d7087","getAllUnfulfilledRequestIds()":"4b96e166","getCountOfUnfulfilledRequestIds()":"e63b5d58","getPublicKey()":"2e334452","getPublicKeyBytes()":"acae9fee","getRequest(uint256)":"c58343ef","getRoleAdmin(bytes32)":"248a9ca3","getRoleMember(bytes32,uint256)":"9010d07c","getRoleMemberCount(bytes32)":"ca15c873","getRoleMembers(bytes32)":"a3246ad3","grantRole(bytes32,address)":"2f2ff15d","hasErrored(uint256)":"b0947289","hasRole(bytes32,address)":"91d14854","initialize(uint256[2],uint256[2],address,address)":"702ef38c","isInFlight(uint256)":"cd802c91","lastRequestID()":"47c03186","multicall(bytes[])":"ac9650d8","proxiableUUID()":"52d1902d","registerCiphertext(string,bytes,bytes)":"f87f0e61","renounceRole(bytes32,address)":"36568abe","requests(uint256)":"81d12c58","retryCallback(uint256)":"0138c60d","revokeRole(bytes32,address)":"d547741f","setSignatureSchemeAddressProvider(address)":"16cc9a98","signatureSchemeAddressProvider()":"e6b3ca71","supportsInterface(bytes4)":"01ffc9a7","upgradeToAndCall(address,bytes)":"4f1ef286","version()":"54fd4d50"},"id":10}