{"abi":[{"type":"function","name":"decodeBytesToUint","inputs":[{"name":"data","type":"bytes","internalType":"bytes"}],"outputs":[{"name":"","type":"uint256","internalType":"uint256"}],"stateMutability":"pure"}],"bytecode":{"object":"0x610251610035600b8282823980515f1a60731461002957634e487b7160e01b5f525f60045260245ffd5b305f52607381538281f3fe7300000000000000000000000000000000000000003014608060405260043610610034575f3560e01c8063f7ba47a314610038575b5f80fd5b61004b61004636600461013b565b61005d565b60405190815260200160405180910390f35b5f6020825110156100f4576040517f08c379a000000000000000000000000000000000000000000000000000000000815260206004820152602360248201527f44617461206d757374206265206174206c65617374203332206279746573206c60448201527f6f6e670000000000000000000000000000000000000000000000000000000000606482015260840160405180910390fd5b818060200190518101906101089190610204565b92915050565b7f4e487b71000000000000000000000000000000000000000000000000000000005f52604160045260245ffd5b5f6020828403121561014b575f80fd5b813567ffffffffffffffff80821115610162575f80fd5b818401915084601f830112610175575f80fd5b8135818111156101875761018761010e565b604051601f82017fffffffffffffffffffffffffffffffffffffffffffffffffffffffffffffffe0908116603f011681019083821181831017156101cd576101cd61010e565b816040528281528760208487010111156101e5575f80fd5b826020860160208301375f928101602001929092525095945050505050565b5f60208284031215610214575f80fd5b505191905056fea26469706673582212202a6373ab9d0ae878fd62bd0b7622670870763ea6dfa01715f2ad158bc934628664736f6c63430008180033","linkReferences":{}},"methodIdentifiers":{"decodeBytesToUint(bytes)":"f7ba47a3"},"id":20}