{"abi":[{"type":"constructor","inputs":[{"name":"_implementation","type":"address","internalType":"address"},{"name":"_data","type":"bytes","internalType":"bytes"}],"stateMutability":"nonpayable"},{"type":"fallback","stateMutability":"payable"},{"type":"function","name":"getImplementation","inputs":[],"outputs":[{"name":"","type":"address","internalType":"address"}],"stateMutability":"view"},{"type":"event","name":"Upgraded","inputs":[{"name":"implementation","type":"address","indexed":true,"internalType":"address"}],"anonymous":false},{"type":"error","name":"AddressEmptyCode","inputs":[{"name":"target","type":"address","internalType":"address"}]},{"type":"error","name":"ERC1967InvalidImplementation","inputs":[{"name":"implementation","type":"address","internalType":"address"}]},{"type":"error","name":"ERC1967NonPayable","inputs":[]},{"type":"error","name":"FailedCall","inputs":[]}],"bytecode":{"object":"0x608060405234801561000f575f80fd5b5060405161046638038061046683398101604081905261002e9161026e565b818161003a8282610043565b50505050610351565b61004c826100a1565b6040516001600160a01b038316907fbc7cd75a20ee27fd9adebab32041f755214dbc6bffa90cc0225b39da2e5c2d3b905f90a280511561009557610090828261011c565b505050565b61009d61018f565b5050565b806001600160a01b03163b5f036100db57604051634c9c8ce360e01b81526001600160a01b03821660048201526024015b60405180910390fd5b7f360894a13ba1a3210667c828492db98dca3e2076cc3735a920a3ca505d382bbc80546001600160a01b0319166001600160a01b0392909216919091179055565b60605f80846001600160a01b0316846040516101389190610336565b5f60405180830381855af49150503d805f8114610170576040519150601f19603f3d011682016040523d82523d5f602084013e610175565b606091505b5090925090506101868583836101b0565b95945050505050565b34156101ae5760405163b398979f60e01b815260040160405180910390fd5b565b6060826101c5576101c08261020f565b610208565b81511580156101dc57506001600160a01b0384163b155b1561020557604051639996b31560e01b81526001600160a01b03851660048201526024016100d2565b50805b9392505050565b80511561021f5780518082602001fd5b60405163d6bda27560e01b815260040160405180910390fd5b634e487b7160e01b5f52604160045260245ffd5b5f5b8381101561026657818101518382015260200161024e565b50505f910152565b5f806040838503121561027f575f80fd5b82516001600160a01b0381168114610295575f80fd5b60208401519092506001600160401b03808211156102b1575f80fd5b818501915085601f8301126102c4575f80fd5b8151818111156102d6576102d6610238565b604051601f8201601f19908116603f011681019083821181831017156102fe576102fe610238565b81604052828152886020848701011115610316575f80fd5b61032783602083016020880161024c565b80955050505050509250929050565b5f825161034781846020870161024c565b9190910192915050565b6101088061035e5f395ff3fe608060405260043610601b575f3560e01c8063aaf10f42146023575b6021605d565b005b348015602d575f80fd5b506034606b565b60405173ffffffffffffffffffffffffffffffffffffffff909116815260200160405180910390f35b606960656077565b60b5565b565b5f60726077565b905090565b5f60727f360894a13ba1a3210667c828492db98dca3e2076cc3735a920a3ca505d382bbc5473ffffffffffffffffffffffffffffffffffffffff1690565b365f80375f80365f845af43d5f803e80801560ce573d5ff35b3d5ffdfea26469706673582212204a0b652619b1500ca87babe1265257c0640a8ce17b2c74d29122ba6753af09d864736f6c63430008180033","linkReferences":{}},"methodIdentifiers":{"getImplementation()":"aaf10f42"},"id":23}