{"abi":[{"type":"constructor","inputs":[{"name":"_biddingEndBlock","type":"uint256","internalType":"uint256"},{"name":"blocklockContract","type":"address","internalType":"address"}],"stateMutability":"nonpayable"},{"type":"function","name":"allBidsUnsealed","inputs":[],"outputs":[{"name":"","type":"bool","internalType":"bool"}],"stateMutability":"view"},{"type":"function","name":"auctionEnded","inputs":[],"outputs":[{"name":"","type":"bool","internalType":"bool"}],"stateMutability":"view"},{"type":"function","name":"bidderToBidID","inputs":[{"name":"","type":"address","internalType":"address"}],"outputs":[{"name":"","type":"uint256","internalType":"uint256"}],"stateMutability":"view"},{"type":"function","name":"biddingEnd","inputs":[],"outputs":[{"name":"","type":"uint256","internalType":"uint256"}],"stateMutability":"view"},{"type":"function","name":"bidsById","inputs":[{"name":"","type":"uint256","internalType":"uint256"}],"outputs":[{"name":"bidID","type":"uint256","internalType":"uint256"},{"name":"bidder","type":"address","internalType":"address"},{"name":"sealedBid","type":"tuple","internalType":"struct TypesLib.Ciphertext","components":[{"name":"u","type":"tuple","internalType":"struct BLS.PointG2","components":[{"name":"x","type":"uint256[2]","internalType":"uint256[2]"},{"name":"y","type":"uint256[2]","internalType":"uint256[2]"}]},{"name":"v","type":"bytes","internalType":"bytes"},{"name":"w","type":"bytes","internalType":"bytes"}]},{"name":"decryptionKey","type":"bytes","internalType":"bytes"},{"name":"unsealedBid","type":"uint256","internalType":"uint256"},{"name":"revealed","type":"bool","internalType":"bool"}],"stateMutability":"view"},{"type":"function","name":"blocklock","inputs":[],"outputs":[{"name":"","type":"address","internalType":"contract IBlocklockSender"}],"stateMutability":"view"},{"type":"function","name":"finalizeAuction","inputs":[],"outputs":[],"stateMutability":"nonpayable"},{"type":"function","name":"fulfillHighestBid","inputs":[],"outputs":[],"stateMutability":"payable"},{"type":"function","name":"getBidWithBidID","inputs":[{"name":"bidID","type":"uint256","internalType":"uint256"}],"outputs":[{"name":"sealedBid","type":"tuple","internalType":"struct TypesLib.Ciphertext","components":[{"name":"u","type":"tuple","internalType":"struct BLS.PointG2","components":[{"name":"x","type":"uint256[2]","internalType":"uint256[2]"},{"name":"y","type":"uint256[2]","internalType":"uint256[2]"}]},{"name":"v","type":"bytes","internalType":"bytes"},{"name":"w","type":"bytes","internalType":"bytes"}]},{"name":"decryptionKey","type":"bytes","internalType":"bytes"},{"name":"unsealedBid","type":"uint256","internalType":"uint256"},{"name":"bidder","type":"address","internalType":"address"},{"name":"revealed","type":"bool","internalType":"bool"}],"stateMutability":"view"},{"type":"function","name":"getBidWithBidder","inputs":[{"name":"bidder","type":"address","internalType":"address"}],"outputs":[{"name":"sealedBid","type":"tuple","internalType":"struct TypesLib.Ciphertext","components":[{"name":"u","type":"tuple","internalType":"struct BLS.PointG2","components":[{"name":"x","type":"uint256[2]","internalType":"uint256[2]"},{"name":"y","type":"uint256[2]","internalType":"uint256[2]"}]},{"name":"v","type":"bytes","internalType":"bytes"},{"name":"w","type":"bytes","internalType":"bytes"}]},{"name":"decryptionKey","type":"bytes","internalType":"bytes"},{"name":"unsealedBid","type":"uint256","internalType":"uint256"},{"name":"_bidder","type":"address","internalType":"address"},{"name":"revealed","type":"bool","internalType":"bool"}],"stateMutability":"view"},{"type":"function","name":"getHighestBid","inputs":[],"outputs":[{"name":"","type":"uint256","internalType":"uint256"}],"stateMutability":"view"},{"type":"function","name":"getHighestBidder","inputs":[],"outputs":[{"name":"","type":"address","internalType":"address"}],"stateMutability":"view"},{"type":"function","name":"highestBid","inputs":[],"outputs":[{"name":"","type":"uint256","internalType":"uint256"}],"stateMutability":"view"},{"type":"function","name":"highestBidPaid","inputs":[],"outputs":[{"name":"","type":"bool","internalType":"bool"}],"stateMutability":"view"},{"type":"function","name":"highestBidder","inputs":[],"outputs":[{"name":"","type":"address","internalType":"address"}],"stateMutability":"view"},{"type":"function","name":"pendingReturns","inputs":[{"name":"","type":"address","internalType":"address"}],"outputs":[{"name":"","type":"uint256","internalType":"uint256"}],"stateMutability":"view"},{"type":"function","name":"placeSealedBid","inputs":[{"name":"sealedBid","type":"tuple","internalType":"struct TypesLib.Ciphertext","components":[{"name":"u","type":"tuple","internalType":"struct BLS.PointG2","components":[{"name":"x","type":"uint256[2]","internalType":"uint256[2]"},{"name":"y","type":"uint256[2]","internalType":"uint256[2]"}]},{"name":"v","type":"bytes","internalType":"bytes"},{"name":"w","type":"bytes","internalType":"bytes"}]}],"outputs":[{"name":"","type":"uint256","internalType":"uint256"}],"stateMutability":"payable"},{"type":"function","name":"receiveBlocklock","inputs":[{"name":"requestID","type":"uint256","internalType":"uint256"},{"name":"decryptionKey","type":"bytes","internalType":"bytes"}],"outputs":[],"stateMutability":"nonpayable"},{"type":"function","name":"reservePrice","inputs":[],"outputs":[{"name":"","type":"uint256","internalType":"uint256"}],"stateMutability":"view"},{"type":"function","name":"revealedBidsCount","inputs":[],"outputs":[{"name":"","type":"uint256","internalType":"uint256"}],"stateMutability":"view"},{"type":"function","name":"seller","inputs":[],"outputs":[{"name":"","type":"address","internalType":"address"}],"stateMutability":"view"},{"type":"function","name":"totalBids","inputs":[],"outputs":[{"name":"","type":"uint256","internalType":"uint256"}],"stateMutability":"view"},{"type":"function","name":"withdrawRefund","inputs":[],"outputs":[],"stateMutability":"nonpayable"},{"type":"event","name":"AuctionEnded","inputs":[{"name":"winner","type":"address","indexed":false,"internalType":"address"},{"name":"highestBid","type":"uint256","indexed":false,"internalType":"uint256"}],"anonymous":false},{"type":"event","name":"BidUnsealed","inputs":[{"name":"bidID","type":"uint256","indexed":true,"internalType":"uint256"},{"name":"bidder","type":"address","indexed":true,"internalType":"address"},{"name":"unsealedBid","type":"uint256","indexed":false,"internalType":"uint256"}],"anonymous":false},{"type":"event","name":"ForfeitedReservePriceClaimed","inputs":[{"name":"auctioneer","type":"address","indexed":false,"internalType":"address"},{"name":"amount","type":"uint256","indexed":false,"internalType":"uint256"}],"anonymous":false},{"type":"event","name":"HighestBidFulfilled","inputs":[{"name":"bidder","type":"address","indexed":true,"internalType":"address"},{"name":"amount","type":"uint256","indexed":false,"internalType":"uint256"}],"anonymous":false},{"type":"event","name":"NewBid","inputs":[{"name":"bidID","type":"uint256","indexed":true,"internalType":"uint256"},{"name":"bidder","type":"address","indexed":true,"internalType":"address"}],"anonymous":false},{"type":"event","name":"ReservePriceClaimed","inputs":[{"name":"bidID","type":"uint256","indexed":true,"internalType":"uint256"},{"name":"claimant","type":"address","indexed":true,"internalType":"address"},{"name":"amount","type":"uint256","indexed":false,"internalType":"uint256"}],"anonymous":false},{"type":"error","name":"ReentrancyGuardReentrantCall","inputs":[]}],"bytecode":{"object":"0x6080604052662386f26fc10000600d553480156200001b575f80fd5b5060405162002d4238038062002d428339810160408190526200003e9162000073565b5f80546001600160a01b039092166001600160a01b0319928316179055600180556002805490911633179055600355620000af565b5f806040838503121562000085575f80fd5b825160208401519092506001600160a01b0381168114620000a4575f80fd5b809150509250929050565b612c8580620000bd5f395ff3fe608060405260043610610177575f3560e01c806393b9740a116100d1578063d57bde791161007c578063e895fc7a11610057578063e895fc7a14610425578063f3fb107c14610456578063f77282ab14610469575f80fd5b8063d57bde79146103dd578063d6c955eb146103f2578063db2e1eed14610410575f80fd5b8063a5622cd8116100ac578063a5622cd814610390578063b11e9929146103a5578063b5c91b98146103c4575f80fd5b806393b9740a1461032d5780639e31ce8114610358578063a1d3150d14610360575f80fd5b80634979440a11610131578063864333741161010c57806386433374146102be5780638b034136146102e757806391f90157146102fc575f80fd5b80634979440a146102605780635d941802146102745780637464b63614610293575f80fd5b8063110f887411610161578063110f8874146101fc57806326b387bb14610212578063423b217f1461024b575f80fd5b80623495a41461017b57806308551a53146101d0575b5f80fd5b348015610186575f80fd5b50600754610100900473ffffffffffffffffffffffffffffffffffffffff165b60405173ffffffffffffffffffffffffffffffffffffffff90911681526020015b60405180910390f35b3480156101db575f80fd5b506002546101a69073ffffffffffffffffffffffffffffffffffffffff1681565b348015610207575f80fd5b5061021061047d565b005b34801561021d575f80fd5b5061023d61022c366004612143565b600c6020525f908152604090205481565b6040519081526020016101c7565b348015610256575f80fd5b5061023d60035481565b34801561026b575f80fd5b5060085461023d565b34801561027f575f80fd5b5061021061028e36600461217d565b6109ae565b34801561029e575f80fd5b5061023d6102ad366004612143565b600b6020525f908152604090205481565b3480156102c9575f80fd5b506004546102d79060ff1681565b60405190151581526020016101c7565b3480156102f2575f80fd5b5061023d60055481565b348015610307575f80fd5b506007546101a690610100900473ffffffffffffffffffffffffffffffffffffffff1681565b348015610338575f80fd5b505f546101a69073ffffffffffffffffffffffffffffffffffffffff1681565b610210610cc7565b34801561036b575f80fd5b5061037f61037a366004612143565b6110dd565b6040516101c79594939291906122e0565b34801561039b575f80fd5b5061023d60065481565b3480156103b0575f80fd5b5061037f6103bf36600461233a565b6113d3565b3480156103cf575f80fd5b506007546102d79060ff1681565b3480156103e8575f80fd5b5061023d60085481565b3480156103fd575f80fd5b506004546102d790610100900460ff1681565b34801561041b575f80fd5b5061023d600d5481565b348015610430575f80fd5b5061044461043f36600461233a565b611671565b6040516101c796959493929190612351565b61023d6104643660046123b2565b6118e0565b348015610474575f80fd5b50610210611dbc565b6003548042116104ee576040517f08c379a000000000000000000000000000000000000000000000000000000000815260206004820152600f60248201527f4e6f742079657420616c6c6f776564000000000000000000000000000000000060448201526064015b60405180910390fd5b6005546006541461055b576040517f08c379a000000000000000000000000000000000000000000000000000000000815260206004820181905260248201527f4e6f7420616c6c20626964732068617665206265656e2072657665616c65642e60448201526064016104e5565b610563611f20565b600754610100900473ffffffffffffffffffffffffffffffffffffffff16330361060f576040517f08c379a000000000000000000000000000000000000000000000000000000000815260206004820152602560248201527f48696768657374206269646465722063616e6e6f74207769746864726177207260448201527f6566756e6400000000000000000000000000000000000000000000000000000060648201526084016104e5565b335f908152600960209081526040808320815160c08101835281548152600182015473ffffffffffffffffffffffffffffffffffffffff1693810193909352815160e081018084529192840191600280850191839160608301918491839160a0860191849182845b81548152602001906001019080831161067757505050918352505060408051808201918290526020909201919060028481019182845b8154815260200190600101908083116106ad5750505050508152505081526020016004820180546106dd906123e9565b80601f0160208091040260200160405190810160405280929190818152602001828054610709906123e9565b80156107545780601f1061072b57610100808354040283529160200191610754565b820191905f5260205f20905b81548152906001019060200180831161073757829003601f168201915b5050505050815260200160058201805461076d906123e9565b80601f0160208091040260200160405190810160405280929190818152602001828054610799906123e9565b80156107e45780601f106107bb576101008083540402835291602001916107e4565b820191905f5260205f20905b8154815290600101906020018083116107c757829003601f168201915b5050505050815250508152602001600882018054610801906123e9565b80601f016020809104026020016040519081016040528092919081815260200182805461082d906123e9565b80156108785780601f1061084f57610100808354040283529160200191610878565b820191905f5260205f20905b81548152906001019060200180831161085b57829003601f168201915b50505091835250506009820154602080830191909152600a9092015460ff1615156040918201528282015173ffffffffffffffffffffffffffffffffffffffff165f908152600c9092529020549091508061092f576040517f08c379a000000000000000000000000000000000000000000000000000000000815260206004820152601360248201527f4e6f7468696e6720746f2077697468647261770000000000000000000000000060448201526064016104e5565b335f818152600c60205260408082208290555183156108fc0291849190818181858888f19350505050158015610967573d5f803e3d5ffd5b5081516040518281523391907fefb9d3ec50ee8ce8ba87c6abca10e5c992665d1067b05cc579d9009551db55c19060200160405180910390a350506109ab60018055565b50565b600354804211610a1a576040517f08c379a000000000000000000000000000000000000000000000000000000000815260206004820152600f60248201527f4e6f742079657420616c6c6f776564000000000000000000000000000000000060448201526064016104e5565b5f848152600a60205260408120549003610a90576040517f08c379a000000000000000000000000000000000000000000000000000000000815260206004820152601560248201527f42696420494420646f6573206e6f74206578697374000000000000000000000060448201526064016104e5565b5f848152600a602052604090206008018054610aab906123e9565b159050610b3a576040517f08c379a000000000000000000000000000000000000000000000000000000000815260206004820152603b60248201527f4269642064656372797074696f6e206b657920616c726561647920726563656960448201527f7665642066726f6d2074696d656c6f636b20636f6e74726163742e000000000060648201526084016104e5565b5f848152600a6020526040902060088101610b568486836124ad565b50600a810180547fffffffffffffffffffffffffffffffffffffffffffffffffffffffffffffff001660011790555f80546040517fc9bc18c400000000000000000000000000000000000000000000000000000000815273ffffffffffffffffffffffffffffffffffffffff9091169063c9bc18c490610be2906002860190600887019060040161267c565b5f60405180830381865afa158015610bfc573d5f803e3d5ffd5b505050506040513d5f823e601f3d9081017fffffffffffffffffffffffffffffffffffffffffffffffffffffffffffffffe0168201604052610c4191908101906127bd565b806020019051810190610c54919061282b565b600983018190559050610c678682611f63565b60018201548254600984015460405190815273ffffffffffffffffffffffffffffffffffffffff909216917f9bd9ee70ac98944a5affad7da09d461cd3069adc461ce1c3db5b3d310ca5b39d9060200160405180910390a3505050505050565b600354804211610d33576040517f08c379a000000000000000000000000000000000000000000000000000000000815260206004820152600f60248201527f4e6f742079657420616c6c6f776564000000000000000000000000000000000060448201526064016104e5565b60055460065414610da0576040517f08c379a000000000000000000000000000000000000000000000000000000000815260206004820181905260248201527f4e6f7420616c6c20626964732068617665206265656e2072657665616c65642e60448201526064016104e5565b5f60085411610e0b576040517f08c379a000000000000000000000000000000000000000000000000000000000815260206004820152601360248201527f4869676865737420626964206973207a65726f0000000000000000000000000060448201526064016104e5565b600754610100900473ffffffffffffffffffffffffffffffffffffffff163314610eb7576040517f08c379a000000000000000000000000000000000000000000000000000000000815260206004820152602260248201527f4f6e6c79207468652068696768657374206269646465722063616e2066756c6660448201527f696c00000000000000000000000000000000000000000000000000000000000060648201526084016104e5565b600454610100900460ff1615610f4f576040517f08c379a000000000000000000000000000000000000000000000000000000000815260206004820152602260248201527f5061796d656e742068617320616c7265616479206265656e20636f6d706c657460448201527f656400000000000000000000000000000000000000000000000000000000000060648201526084016104e5565b600d54600854610f5f919061286f565b3414610fed576040517f08c379a000000000000000000000000000000000000000000000000000000000815260206004820152603d60248201527f5061796d656e74206d75737420626520657175616c20746f206869676865737460448201527f20626964206d696e757320746865207265736572766520616d6f756e7400000060648201526084016104e5565b600480547fffffffffffffffffffffffffffffffffffffffffffffffffffffffffffff00ff16610100179055600254600d5473ffffffffffffffffffffffffffffffffffffffff909116906108fc906110469034612888565b6040518115909202915f818181858888f1935050505015801561106b573d5f803e3d5ffd5b50600754610100900473ffffffffffffffffffffffffffffffffffffffff165f908152600c6020526040812055600d5433907fa258a92d844674cb1512f274179ac75ba9fb6552b2d412f1959575f09eba20d9906110c99034612888565b60405190815260200160405180910390a250565b6110e5612087565b73ffffffffffffffffffffffffffffffffffffffff82165f908152600b60209081526040808320548352600a909152808220815160e08101928390526060939283928392916002918201918391888301918491839160a086019184919082845b81548152602001906001019080831161114557505050918352505060408051808201918290526020909201919060028481019182845b81548152602001906001019080831161117b5750505050508152505081526020016004820180546111ab906123e9565b80601f01602080910402602001604051908101604052809291908181526020018280546111d7906123e9565b80156112225780601f106111f957610100808354040283529160200191611222565b820191905f5260205f20905b81548152906001019060200180831161120557829003601f168201915b5050505050815260200160058201805461123b906123e9565b80601f0160208091040260200160405190810160405280929190818152602001828054611267906123e9565b80156112b25780601f10611289576101008083540402835291602001916112b2565b820191905f5260205f20905b81548152906001019060200180831161129557829003601f168201915b5050509190925250505073ffffffffffffffffffffffffffffffffffffffff87165f908152600b60209081526040808320548352600a90915290206008018054919650906112ff906123e9565b80601f016020809104026020016040519081016040528092919081815260200182805461132b906123e9565b80156113765780601f1061134d57610100808354040283529160200191611376565b820191905f5260205f20905b81548152906001019060200180831161135957829003601f168201915b5050505073ffffffffffffffffffffffffffffffffffffffff9788165f908152600b60209081526040808320548352600a91829052909120600981015460018201549190920154989a939991989116965060ff1694509092505050565b6113db612087565b5f828152600a6020526040808220815160e08101928390526060939283928392916002918201918391888301918491839160a086019184919082845b81548152602001906001019080831161141757505050918352505060408051808201918290526020909201919060028481019182845b81548152602001906001019080831161144d57505050505081525050815260200160048201805461147d906123e9565b80601f01602080910402602001604051908101604052809291908181526020018280546114a9906123e9565b80156114f45780601f106114cb576101008083540402835291602001916114f4565b820191905f5260205f20905b8154815290600101906020018083116114d757829003601f168201915b5050505050815260200160058201805461150d906123e9565b80601f0160208091040260200160405190810160405280929190818152602001828054611539906123e9565b80156115845780601f1061155b57610100808354040283529160200191611584565b820191905f5260205f20905b81548152906001019060200180831161156757829003601f168201915b505050919092525050505f878152600a602052604090206008018054919650906115ad906123e9565b80601f01602080910402602001604051908101604052809291908181526020018280546115d9906123e9565b80156116245780601f106115fb57610100808354040283529160200191611624565b820191905f5260205f20905b81548152906001019060200180831161160757829003601f168201915b5050505f9889525050600a60208190526040909720600981015460018201549190980154969891979673ffffffffffffffffffffffffffffffffffffffff909116955060ff169350915050565b600a6020525f90815260409081902080546001820154835160e0810194859052919373ffffffffffffffffffffffffffffffffffffffff909116929190600280840191839160608301918491839160a0860191849182845b8154815260200190600101908083116116c957505050918352505060408051808201918290526020909201919060028481019182845b8154815260200190600101908083116116ff57505050505081525050815260200160048201805461172f906123e9565b80601f016020809104026020016040519081016040528092919081815260200182805461175b906123e9565b80156117a65780601f1061177d576101008083540402835291602001916117a6565b820191905f5260205f20905b81548152906001019060200180831161178957829003601f168201915b505050505081526020016005820180546117bf906123e9565b80601f01602080910402602001604051908101604052809291908181526020018280546117eb906123e9565b80156118365780601f1061180d57610100808354040283529160200191611836565b820191905f5260205f20905b81548152906001019060200180831161181957829003601f168201915b5050505050815250509080600801805461184f906123e9565b80601f016020809104026020016040519081016040528092919081815260200182805461187b906123e9565b80156118c65780601f1061189d576101008083540402835291602001916118c6565b820191905f5260205f20905b8154815290600101906020018083116118a957829003601f168201915b505050506009830154600a9093015491929160ff16905086565b5f60035480431061194d576040517f08c379a000000000000000000000000000000000000000000000000000000000815260206004820152601060248201527f426c6f636b20686173207061737365640000000000000000000000000000000060448201526064016104e5565b600d5434146119e057604080517f08c379a00000000000000000000000000000000000000000000000000000000081526020600482015260248101919091527f426964206d757374206265206163636f6d70616e69656420627920612064657060448201527f6f73697420657175616c20746f2074686520726573657276652070726963652e60648201526084016104e5565b335f908152600b60205260409020548015611a57576040517f08c379a000000000000000000000000000000000000000000000000000000000815260206004820152601f60248201527f4f6e6c79206f6e772062696420616c6c6f77656420706572206269646465720060448201526064016104e5565b5f546003546040517f46cd2b4200000000000000000000000000000000000000000000000000000000815273ffffffffffffffffffffffffffffffffffffffff909216916346cd2b4291611aaf918890600401612949565b6020604051808303815f875af1158015611acb573d5f803e3d5ffd5b505050506040513d601f19601f82011682018060405250810190611aef919061282b565b90505f6040518060c001604052808381526020013373ffffffffffffffffffffffffffffffffffffffff16815260200186611b2990612a72565b815260408051602080820183525f8083528185019290925282840182905260609093018190523381526009835281902083518155918301516001830180547fffffffffffffffffffffffff00000000000000000000000000000000000000001673ffffffffffffffffffffffffffffffffffffffff909216919091179055820151805180519394508493600280850192918391611bc79183916120ae565b506020820151611bdd90600280840191906120ae565b50505060208201516004820190611bf49082612b33565b5060408201516005820190611c099082612b33565b50505060608201516008820190611c209082612b33565b506080820151600982015560a090910151600a91820180547fffffffffffffffffffffffffffffffffffffffffffffffffffffffffffffff00169115159190911790555f838152602091825260409081902083518155918301516001830180547fffffffffffffffffffffffff00000000000000000000000000000000000000001673ffffffffffffffffffffffffffffffffffffffff90921691909117905582015180518051849392916002808501928391611cde9183916120ae565b506020820151611cf490600280840191906120ae565b50505060208201516004820190611d0b9082612b33565b5060408201516005820190611d209082612b33565b50505060608201516008820190611d379082612b33565b506080820151600982015560a090910151600a90910180547fffffffffffffffffffffffffffffffffffffffffffffffffffffffffffffff0016911515919091179055335f908152600b60209081526040808320859055600d54600c9092528220556005805460019290611dac908490612888565b9091555091935050505b50919050565b60055460065414611e29576040517f08c379a000000000000000000000000000000000000000000000000000000000815260206004820181905260248201527f4e6f7420616c6c20626964732068617665206265656e2072657665616c65642e60448201526064016104e5565b60045460ff1615611e96576040517f08c379a000000000000000000000000000000000000000000000000000000000815260206004820152601960248201527f41756374696f6e20616c72656164792066696e616c697365640000000000000060448201526064016104e5565b6004805460017fffffffffffffffffffffffffffffffffffffffffffffffffffffffffffffff009091161790556007546008546040805161010090930473ffffffffffffffffffffffffffffffffffffffff16835260208301919091527fdaec4582d5d9595688c8c98545fdd1c696d41c6aeaeb636737e84ed2f5c00eda910160405180910390a1565b600260015403611f5c576040517f3ee5aeb500000000000000000000000000000000000000000000000000000000815260040160405180910390fd5b6002600155565b5f828152600a6020819052604082206009810184905590810180547fffffffffffffffffffffffffffffffffffffffffffffffffffffffffffffff001660019081179091556006805492939192909190611fbe908490612888565b909155505060085482118015611fd55750600d5482115b1561202f57600882905560018101546007805473ffffffffffffffffffffffffffffffffffffffff909216610100027fffffffffffffffffffffff0000000000000000000000000000000000000000ff9092169190911790555b600181015460405183815273ffffffffffffffffffffffffffffffffffffffff9091169084907f9bd9ee70ac98944a5affad7da09d461cd3069adc461ce1c3db5b3d310ca5b39d9060200160405180910390a3505050565b604051806060016040528061209a6120ec565b815260200160608152602001606081525090565b82600281019282156120dc579160200282015b828111156120dc5782518255916020019190600101906120c1565b506120e8929150612111565b5090565b60405180604001604052806120ff612125565b815260200161210c612125565b905290565b5b808211156120e8575f8155600101612112565b60405180604001604052806002906020820280368337509192915050565b5f60208284031215612153575f80fd5b813573ffffffffffffffffffffffffffffffffffffffff81168114612176575f80fd5b9392505050565b5f805f6040848603121561218f575f80fd5b83359250602084013567ffffffffffffffff808211156121ad575f80fd5b818601915086601f8301126121c0575f80fd5b8135818111156121ce575f80fd5b8760208285010111156121df575f80fd5b6020830194508093505050509250925092565b805f5b60028110156122145781518452602093840193909101906001016121f5565b50505050565b5f5b8381101561223457818101518382015260200161221c565b50505f910152565b5f815180845261225381602086016020860161221a565b601f017fffffffffffffffffffffffffffffffffffffffffffffffffffffffffffffffe0169290920160200192915050565b5f81516122938482516121f2565b602001516122a460408501826121f2565b50602082015160c060808501526122be60c085018261223c565b9050604083015184820360a08601526122d7828261223c565b95945050505050565b60a081525f6122f260a0830188612285565b8281036020840152612304818861223c565b6040840196909652505073ffffffffffffffffffffffffffffffffffffffff929092166060830152151560809091015292915050565b5f6020828403121561234a575f80fd5b5035919050565b86815273ffffffffffffffffffffffffffffffffffffffff8616602082015260c060408201525f61238560c0830187612285565b8281036060840152612397818761223c565b6080840195909552505090151560a090910152949350505050565b5f602082840312156123c2575f80fd5b813567ffffffffffffffff8111156123d8575f80fd5b820160c08185031215612176575f80fd5b600181811c908216806123fd57607f821691505b602082108103611db6577f4e487b71000000000000000000000000000000000000000000000000000000005f52602260045260245ffd5b7f4e487b71000000000000000000000000000000000000000000000000000000005f52604160045260245ffd5b601f8211156124a857805f5260205f20601f840160051c810160208510156124865750805b601f840160051c820191505b818110156124a5575f8155600101612492565b50505b505050565b67ffffffffffffffff8311156124c5576124c5612434565b6124d9836124d383546123e9565b83612461565b5f601f841160018114612529575f85156124f35750838201355b7fffffffffffffffffffffffffffffffffffffffffffffffffffffffffffffffff600387901b1c1916600186901b1783556124a5565b5f838152602081207fffffffffffffffffffffffffffffffffffffffffffffffffffffffffffffffe08716915b828110156125765786850135825560209485019460019092019101612556565b50868210156125b1577fffffffffffffffffffffffffffffffffffffffffffffffffffffffffffffffff60f88860031b161c19848701351681555b505060018560011b0183555050505050565b805f5b60028110156122145781548452602090930192600191820191016125c6565b5f81546125f1816123e9565b80855260206001838116801561260e576001811461264657612671565b7fffffffffffffffffffffffffffffffffffffffffffffffffffffffffffffff008516838901528284151560051b8901019550612671565b865f52825f205f5b858110156126695781548a820186015290830190840161264e565b890184019650505b505050505092915050565b6040815261268d60408201846125c3565b61269d60808201600285016125c3565b60c0808201525f6126b56101008301600486016125e5565b7fffffffffffffffffffffffffffffffffffffffffffffffffffffffffffffffc08382030160e08401526126ec81600587016125e5565b905082810360208401526122d781856125e5565b6040805190810167ffffffffffffffff8111828210171561272357612723612434565b60405290565b604051601f82017fffffffffffffffffffffffffffffffffffffffffffffffffffffffffffffffe016810167ffffffffffffffff8111828210171561277057612770612434565b604052919050565b5f67ffffffffffffffff82111561279157612791612434565b50601f017fffffffffffffffffffffffffffffffffffffffffffffffffffffffffffffffe01660200190565b5f602082840312156127cd575f80fd5b815167ffffffffffffffff8111156127e3575f80fd5b8201601f810184136127f3575f80fd5b805161280661280182612778565b612729565b81815285602083850101111561281a575f80fd5b6122d782602083016020860161221a565b5f6020828403121561283b575f80fd5b5051919050565b7f4e487b71000000000000000000000000000000000000000000000000000000005f52601160045260245ffd5b8181038181111561288257612882612842565b92915050565b8082018082111561288257612882612842565b5f8083357fffffffffffffffffffffffffffffffffffffffffffffffffffffffffffffffe18436030181126128ce575f80fd5b830160208101925035905067ffffffffffffffff8111156128ed575f80fd5b8036038213156128fb575f80fd5b9250929050565b81835281816020850137505f602082840101525f60207fffffffffffffffffffffffffffffffffffffffffffffffffffffffffffffffe0601f840116840101905092915050565b828152604060208201526040826040830137604080830160808301375f612973608084018461289b565b60c08085015261298861010085018284612902565b91505061299860a085018561289b565b7fffffffffffffffffffffffffffffffffffffffffffffffffffffffffffffffc08584030160e08601526129cd838284612902565b979650505050505050565b5f82601f8301126129e7575f80fd5b6129ef612700565b806040840185811115612a00575f80fd5b845b81811015612a1a578035845260209384019301612a02565b509095945050505050565b5f82601f830112612a34575f80fd5b8135612a4261280182612778565b818152846020838601011115612a56575f80fd5b816020850160208301375f918101602001919091529392505050565b5f81360360c0811215612a83575f80fd5b6040516060810167ffffffffffffffff8282108183111715612aa757612aa7612434565b816040526080841215612ab8575f80fd5b612ac0612700565b9350612acc36876129d8565b8452612adb36604088016129d8565b602085015292825260808501359280841115612af5575f80fd5b612b0136858801612a25565b602084015260a0860135935080841115612b19575f80fd5b5050612b2736838601612a25565b60408201529392505050565b815167ffffffffffffffff811115612b4d57612b4d612434565b612b6181612b5b84546123e9565b84612461565b602080601f831160018114612bb3575f8415612b7d5750858301515b7fffffffffffffffffffffffffffffffffffffffffffffffffffffffffffffffff600386901b1c1916600185901b178555612c47565b5f858152602081207fffffffffffffffffffffffffffffffffffffffffffffffffffffffffffffffe08616915b82811015612bff57888601518255948401946001909101908401612be0565b5085821015612c3b57878501517fffffffffffffffffffffffffffffffffffffffffffffffffffffffffffffffff600388901b60f8161c191681555b505060018460011b0185555b50505050505056fea264697066735822122074e3bff0f64730b528ae884aabc312418313bff0b6493276fd459f91466aa2b864736f6c63430008180033","linkReferences":{}},"methodIdentifiers":{"allBidsUnsealed()":"b5c91b98","auctionEnded()":"86433374","bidderToBidID(address)":"7464b636","biddingEnd()":"423b217f","bidsById(uint256)":"e895fc7a","blocklock()":"93b9740a","finalizeAuction()":"f77282ab","fulfillHighestBid()":"9e31ce81","getBidWithBidID(uint256)":"b11e9929","getBidWithBidder(address)":"a1d3150d","getHighestBid()":"4979440a","getHighestBidder()":"003495a4","highestBid()":"d57bde79","highestBidPaid()":"d6c955eb","highestBidder()":"91f90157","pendingReturns(address)":"26b387bb","placeSealedBid(((uint256[2],uint256[2]),bytes,bytes))":"f3fb107c","receiveBlocklock(uint256,bytes)":"5d941802","reservePrice()":"db2e1eed","revealedBidsCount()":"a5622cd8","seller()":"08551a53","totalBids()":"8b034136","withdrawRefund()":"110f8874"},"id":28}